:101C000002C0302E3031112420E0A0E6B0E001C047
:101C10001D92A83CB207E1F75BC0382FFC018FEFA3
:101C20009FEF2E2F231B261708F00895219182275E
:101C300028E0AC014170552796958795452B21F0FA
:101C400041E0842740EA9427215099F7EACFCF93C7
:101C5000DF9390E896BD23E026BDC39AC19AB99A56
:101C6000C19808B2E3E0C0E2DC2FDA95F1F780FB1F
:101C700001F8E695879508BAB9F796BD16BCDF91CD
:101C8000CF9108951F93CF93DF93EC01162F6EEF42
:101C9000610FC3DF9E01210F311DF901329780834F
:101CA00021503109F9019083FE011C0FEF012196AB
:101CB0008081CDDFFE011C13F9CFDF91CF911F9101
:101CC0000895FC01218120582183628365E0DACFE9
:101CD000F8940FB6F894A89581B5886181BD11BCC0
:101CE0000FBEC598BD98B59918C0E0E0F0E0D59159
:101CF000DF3F99F4D491DD3C81F4EF91E43551F468
:101D0000EF91EF3439F4EF91EF3421F4EF91E234B5
:101D100009F403C0EFE0F0E00994CFE5D2E0DEBFC4
:101D2000CDBF80E090E030D1F82EBB9A87ECC82E72
:101D300080E0D82E90E8E92E23E0B22EAA24AA94BF
:101D40003DEC932E44E0842E54E0252E5CE1352EAC
:101D500065E0462E6CE1562E78E1672EE8E27E2E95
:101D6000E0EAF0E081818193CE16DF06D9F7E6BC88
:101D7000B6BCC398C098B8982FE280E8B099FECF5F
:101D80002150F1F721E2B09908948795C8F72A9578
:101D9000F1F7E6BC16BC8093C7009091A0009F119C
:101DA0007BC09091A100903109F076C09091A50080
:101DB000903109F071C00091C600182F66E280EAE8
:101DC00090E02BDF8017910709F066C08091A20098
:101DD0009091A300982789279827813E2BE19207AD
:101DE00008F09BC09C012F713327232B09F095C06D
:101DF000009721F4A092A6009092A70050E0BC01A9
:101E0000607CA0E6B0E030E020E0FB01E20FF31FD1
:101E1000E491ED932F5F3F4F20343105B1F7282F28
:101E2000261B30E0E52FF0E0EA55FF4F2034310566
:101E300050F44191D901A05ABF4F4C935F5F2F5F7F
:101E40003F4F503299F7E62FF72FC0E6D0E014D07D
:101E500003E007BFE89540E40FD00990199001E036
:101E600007BFE89532964250B9F706D0E62FF72F14
:101E700005E007BFE89506C01091370011701130DA
:101E8000D9F308951124850F911D503208F4B7CF6E
:101E900068E080EA90E0F6DE8091C0008F1160CFAC
:101EA000D091C100D33019F0D63009F059CF00914C
:101EB000C6001091C70066E080EC90E0AEDE8017AF
:101EC000910709F04DCF2091C2003091C300322715
:101ED000232732278091C500D33021F1D63009F075
:101EE0003FCF232B09F03CCF9091C400892BF9F40C
:101EF000E0ECF0E08F010F5F1F4F8081A8DEF8015A
:101F0000085C1040B9F70FB6F894A89561BC0FBEF5
:101F100071BCEFE0F0E0099423CF62E080EA90E04A
:101F2000D0DEBACF2115310599F4813029F063E074
:101F300080EC90E0C6DE14CF92E09093C200109245
:101F4000C3008093C40067E080EC90E09BDE08CF84
:101F50002130310509F004CF823049F78092C20068
:101F6000E2E0FCE184918093C300E3E0FCE1849132
:101F70008093C400F10184918093C500F2018491A3
:101F80008093C60069E0E0CFE199FECF9FBB8EBB96
:081F9000E09A99278DB3089532
:0400000300001C00DD
:00000001FF
