:101C000002C0302E3031112420E0A0E6B0E001C047
:101C10001D92A83CB207E1F759C0382FFC018FEFA5
:101C20009FEF2E2F231B261788F42191822728E06F
:101C3000AC014170552796958795452B21F041E0E1
:101C4000842740EA9427215099F7EBCF0895CF934A
:101C5000DF9320E833E06623C9F0FC014191CF0116
:101C600026BD36BDC39AC19AB99AC19808B2E3E0BD
:101C7000C0E2DC2FDA95F1F740FB01F8E6954795D5
:101C800008BAB9F726BD16BC6150E5CFDF91CF91F8
:101C900008951F93CF93DF93EC01162F6EEF610F22
:101CA000BCDF9E01210F311DF901329780833196EF
:101CB0009083612FCE01DF91CF911F91C8CFFC019E
:101CC000218120582183628365E0E3CFF8940FB629
:101CD000F894A89581B5886181BD11BC0FBEC598E7
:101CE000BD98B59918C0E0E0F0E0D591DF3F99F4D8
:101CF000D491DD3C81F4EF91E43551F4EF91EF3470
:101D000039F4EF91EF3421F4EF91E23409F403C098
:101D1000EFE0F0E00994CFE5D2E0DEBFCDBF80E098
:101D200090E02CD1782EBB9A80E8682E93E0292E83
:101D300033243A942DEC422E34E0532E42E0E42E2C
:101D40004CE1F42E53E0C52E5CE1D52E64E0A62EC6
:101D50006CE1B62E75E0872E7CE1972EE0EAF0E08C
:101D60008181819320E0E73CF207D1F766BC26BC75
:101D7000C398C098B8982FE280E8B099FECF215060
:101D8000F1F721E2B09908948795C8F72A95F1F701
:101D900066BC16BC8093C7009091A000791282C0E7
:101DA0009091A100903109F07DC09091A5009031F3
:101DB00009F078C00091C60010E0182B66E280EAB6
:101DC00090E02BDF0817190709F06CC08091A20082
:101DD0009091A300982789279827813E4BE194078B
:101DE00008F05CC09C012F713327232B09F056C0EB
:101DF000009721F43092A6004092A70050E09C0189
:101E0000207CA0E6B0E0B90160567040FB01EA0F0B
:101E1000FB1FE491ED93E0E0A03ABE07B9F7E82F8D
:101E2000E21BF0E0E05AFF4FBF01605670406034A3
:101E3000710554F4A52FB0E0A056BF4F16964C91F3
:101E400041935F5F503281F7E22FF32FC0E6D0E07D
:101E500014D003E007BFE89540E40FD00990199033
:101E600001E007BFE89532964250B9F706D0E22F5D
:101E7000F32F05E007BFE89506C0109137001170F9
:101E80001130D9F308951124850F911D503209F0B6
:101E9000B6CF68E080EA90E0FCDE04C062E080EA51
:101EA00090E00DDF8091C000781258CFD091C10032
:101EB000D33019F0D63009F051CF0091C6001091FF
:101EC000C70066E080EC90E0A8DE0817190709F06B
:101ED00045CF8091C2009091C30098278927982709
:101EE0002091C500D33019F0D63079F137CF009763
:101EF00081F4213029F063E080EC90E0E0DE2ECF29
:101F000082E08093C2001092C3002093C40067E077
:101F100018C0019709F022CF223069F75092C20011
:101F2000F70184918093C300F60184918093C400EB
:101F3000F50184918093C500F40184918093C600DB
:101F400069E080EC90E0A5DE09CF892B09F006CF8F
:101F50008091C4008111CFCF2111CDCF68E080ECFA
:101F600090E075DEF8E128E20FB6F894A895F1BD8F
:101F70000FBE21BDEFE0F0E00994F0CEE199FECF75
:0C1F80009FBB8EBBE09A99278DB308959B
:0400000300001C00DD
:00000001FF
