:1000000010C01FC0ADC61DC01CC02BC61AC019C071
:1000100018C017C016C015C014C013C02CC6302E8F
:10002000303411241FBECFE5D2E0DEBFCDBF20E0CB
:10003000A0E6B0E001C01D92A43DB207E1F7B2D640
:1000400077CDDECFFB0120813181A9014827CA018C
:1000500028E0AC014170552796958795452B21F0F6
:1000600051E0852750EA9527215099F7FB019183AC
:1000700080830895982F96959575880F8A7A982B86
:10008000892F869586958373990F990F9C7C892B70
:1000900082950895CF92DF92EF92FF920F931F9374
:1000A000CF93DF939C01FF24F39482E0D82E94E554
:1000B000C92EEE24EA94062F020FE90189911091CE
:1000C000A5001F5F1F719091A4001917E1F3D2DF03
:1000D000E12FF0E0EC57FF4F80831093A500809153
:1000E000A70080FD16C08091A70082FDFCCFF89488
:1000F00012BEFCBCF3BED8BE89B7826089BFCDB842
:10010000EFB8EEB8B99A8091A70081608093A700FC
:1001100078949E010C13D1CFDF91CF911F910F9155
:10012000FF90EF90DF90CF900895BF92CF92DF9233
:10013000EF92FF920F931F93CF93DF9300D0CDB731
:10014000DEB78C01D62E8EEFC82EC60E8FEF9FEF36
:100150009A838983B02E7801BE016F5F7F4FF701CC
:1001600081917F016FDF8E2D8B198C15A8F339815A
:100170002A81C8018D0D911DFC01329730830197B2
:10018000FC0120836D2DC80185DF0F900F90DF915A
:10019000CF911F910F91FF90EF90DF90CF90BF9084
:1001A0000895FC01218120582183628365E0BDCF41
:1001B0009FB7F894BC9AC49820E12A95F1F7BC98AF
:1001C000C49888E18A95F1F786B322E92A95F1F778
:1001D00000C09FBF80710895CF93DF93D8E0C0E047
:1001E000C695E6DF8111C068D150D1F78C2FDF9121
:1001F000CF9108959FB7F894BC9AC498EFEBF3E0C1
:100200003197F1F700C00000BC98C498FAEBFA955A
:10021000F1F700C086B3E3E3F3E03197F1F700C0F4
:1002200000009FBF8095807108958FB7F894BC9AA5
:10023000C49890EA9A95F1F7BC98C4989AE19A9577
:10024000F1F700C08FBF08958FB7F894BC9AC49897
:1002500090E19A95F1F7BC98C4989AEA9A95F1F7CB
:1002600000C08FBF0895CF93DF93D82FC8E0D0FF91
:1002700007C0EADFD695C150D1F7DF91CF9108953D
:10028000D4DFF8CF0F931F93CF93DF93EC0185E575
:10029000EADF8E01085F1F4F8991E5DFC017D107A4
:1002A000D9F7DF91CF911F910F9108958F929F926F
:1002B000AF92BF92CF92DF92EF92FF92CF9386B12F
:1002C000877D86B9379A8FE887B98FE99FE00197D4
:1002D000F1F700C00000C4E0C12CD12C7601369AA1
:1002E0003699FECF64B175B190E080E02ADB9B01C6
:1002F000AC01C701B60126DA6B017C01C15079F768
:1003000020E030E040E85EE3A8DB4B015C01379879
:10031000379A8CE187B98FE99FE00197F1F700C028
:100320000000C4E0C12CD12C7601369A3699FECF5C
:1003300064B175B190E080E004DB9B01AC01C701C2
:10034000B60100DA6B017C01C15079F720E030E0A2
:1003500040E85EE382DB9B01AC016DEC7CEC8CE859
:1003600094E454DA6B017C01379820E030E040E2FD
:1003700051E473DBB8DACDE06E3128F4613108F472
:1003800061E1CFEEC60FC092D000D092D100E092D2
:10039000D200F092D30023E333E748E853E4C501E9
:1003A000B401CFD92AE939E949E85FE32FDA6B01D3
:1003B0007C016C2F70E090E080E0C1DA20E030E05A
:1003C00040E551E423DA9B01AC01C701B601BAD97B
:1003D0006093CC007093CD008093CE009093CF00BB
:1003E000CF91FF90EF90DF90CF90BF90AF909F9014
:1003F0008F90089571E0BA9ABC9800000000000048
:100400002BD4BA9829D4A894000000000000B29B15
:100410001ED4B2F08894B4990894771F60F7BA9A02
:10042000803011F0BC9801C0BC9A000000000000B0
:1004300013D4BA98A89400000000B29B08D40CD43E
:1004400000000000BA9A872F9927089580E2089546
:100450000894881F01C0880FB9F0BA9A0000000004
:10046000000018F40000BC9802C0BC9A00C0F4D38D
:10047000BA98A894000000000000B29BE8D312F4E0
:10048000882712C0E9D3E7CFBA9A00000000BC98D1
:10049000E3D399278827BA98A8940000B29BD7D3B2
:1004A0007AF3B49B81E0D8D300000000BA9A089593
:1004B00081E00895BA9ABC9ACFD3BA98CDD3B29BB3
:1004C000C6D3BC98C9D378940895F894BA9AC4D383
:1004D000BC98C2D3BA98C0D3B29BB9D3BC9ABCD390
:1004E000B7CF81E00895F894B29BB1D3BC9AB4D34E
:1004F000AFCF81E00895BC98BA98C498C298882775
:100500009927B49B0895B29B089581E0089581E0F6
:1005100008952F923F924F925F926F927F928F92A7
:100520009F92AF92BF92CF92DF92EF92FF920F9382
:100530001F93CF93DF93CDB7DEB72B970FB6F89409
:10054000DEBF0FBECDBF082FD6DF8CEECCDF87EF2E
:100550007FDF8DEEBADF80E04DDF8B8780E04ADF02
:100560008A8780E047DF898380E044DF90E0B0E065
:10057000A0E04C015D012CE0880C991CAA1CBB1C5E
:100580002A95D1F780E036DF90E0B0E0A0E06C0182
:100590007D0134E0CC0CDD1CEE1CFF1C3A95D1F73C
:1005A000C828D928EA28FB2880E024DF82958F70AC
:1005B000C82A80E01FDF782E81E01CDF7BDF80907F
:1005C000A8009090A900B12CA12C1601270144E0AD
:1005D00055944794379427944A95D1F728183908A9
:1005E0004A085B0853E0F594E794D794C7945A956A
:1005F000D1F7880C991CAA1CBB1CC701B60168194D
:1006000079098A099B092091AA003091AB00032E39
:10061000000C440B550B3DD84B015C017BE0B594BD
:10062000A794979487947A95D1F7A2019101C2017A
:10063000B1012FD8ECE09595879577956795EA9568
:10064000D1F72091AC003091AD00032E000C440B8B
:10065000550B1FD8FEE09595879577956795FA9588
:10066000D1F7680D791D8A1D9B1D6093C80070939A
:10067000C9008093CA009093CB00013081F1023011
:1006800009F485C125E030E040E050E002D86B017C
:100690007C0120E8C20ED11CE11CF11CCD2CDE2C0B
:1006A000EF2CFF24E7FCFA94C701B6012B960FB696
:1006B000F894DEBF0FBECDBFDF91CF911F910F9198
:1006C000FF90EF90DF90CF90BF90AF909F908F9072
:1006D0007F906F905F904F903F902F900895E091A2
:1006E000B400F091B500FB83EA830091B60010914D
:1006F000B7002090B8003090B9002091BA00309136
:10070000BB003D832C83E091BC00F091BD00FF83D2
:10071000EE832091BE003091BF00398728874B01BE
:100720005C01B594A794979487943AEF931AA10823
:10073000B108C501B40122E0959587957795679535
:100740002A95D1F79B01AC01A4D72B013C01609104
:10075000B2007091B300072E000C880B990BA30117
:100760009201EDE05595479537952795EA95D1F794
:1007700090D76B017C01F3E0F594E794D794C7948C
:10078000FA95D1F76091B0007091B100072E000C7E
:10079000880B990BA50194017CD795958795779542
:1007A00067956C0D7D1D8E1D9F1DB2E195958795FA
:1007B00077956795BA95D1F770588F4F9F4F2091D5
:1007C000AE003091AF0050E040E063D76B017C0198
:1007D0008FE0F594E794D794C7948A95D1F7C11424
:1007E000D104E104F10409F45FCFC301B2013BE09D
:1007F00095958795779567953A95D1F79101330C43
:10080000440B550B46D72B013C01B801110F880B47
:10081000990BA50194013DD74B015C01880C991CF3
:10082000AA1CBB1C840C951CA61CB71C52E0B594DA
:10083000A794979487945A95D1F78B85482E512C7D
:10084000712C612C6CE0440C551C661C771C6A955D
:10085000D1F7EA856E2F70E090E080E0E4E0660F6B
:10086000771F881F991FEA95D1F7198112951F707C
:10087000612B64297529862997292A813B812901C1
:10088000330F66087708320155244424480C591C5C
:100890006A1C7B1CACE07594679457944794AA95A6
:1008A000D1F7640D751D861D971D2BEC33EF4FEFAF
:1008B0005FEFEFD6805B9C4397FD5FC0660F771FAD
:1008C000881F991FA7019601FDD629013A01C3018E
:1008D000B20153E096958795779567955A95D1F72C
:1008E0009B01AC01D6D6EDE09695879577956795F7
:1008F000EA95D1F7E885F9859F01FF0F440B550B69
:10090000C8D64B015C01FCE0B594A79497948794FA
:10091000FA95D1F7C301B201A2E096958795779534
:100920006795AA95D1F7EE81FF819F01FF0F440BD8
:10093000550BAFD66B017C01BDE0F594E794D794DD
:10094000C794BA95D1F7C80CD91CEA1CFB1C2C81A2
:100950003D814901330FAA08BB08C80CD91CEA1C09
:10096000FB1C14E0F594E794D794C7941A95D1F73B
:10097000C40CD51CE61CF71C97CEA7019601A2D685
:1009800029013A01440C551C661C771CA0CF20910C
:10099000C5004B015C013CE2931A31E0A30AB108A7
:1009A000C72CD12CDC2CCC24F12CE12C4EE0CC0C2F
:1009B000DD1CEE1CFF1C4A95D1F78091C40090E02D
:1009C00054E0880F991F5A95E1F7322F3F70832B1F
:1009D000B0E0A0E064E1880F991FAA1FBB1F6A95D1
:1009E000D1F7C81AD90AEA0AFB0A6091C60070E07A
:1009F000E4E0660F771FEA95E1F722952F70622BEE
:100A000090E080E0A501940144D6C61AD70AE80A0E
:100A1000F90A80E4D80EE11CF11CFFE0F594E7949C
:100A2000D794C794FA95D1F76091C300062E000CB5
:100A3000770B880B990BA50194012BD62B013C0158
:100A4000ABE07594679457944794AA95D1F790E8D2
:100A5000590E611C711C6091C700062E000C770BAB
:100A6000880B990BA501940114D69B01AC01BAE047
:100A70005595479537952795BA95D1F7C301B2019A
:100A800008D61AE095958795779567951A95D1F7C9
:100A900080962091C1003091C200032E000C440BBF
:100AA000550BF7D59B01AC01305E4F4F5F4F0EE009
:100AB00055954795379527950A95D1F7C701B60102
:100AC000E8D56B017C012FE0959587957795679523
:100AD0002A95D1F79B01AC01DCD537E09595879538
:100AE000779567953A95D1F72091C000022E000CBA
:100AF000330B440B550BCDD544E0959587957795F1
:100B000067954A95D1F7C61AD70AE80AF90AF7FE97
:100B100003C0C12CD12C7601C701B601613071052B
:100B20008105E9E19E0724F060E070E080E099E152
:100B30002CE095958795779567952A95D1F7FFD6FF
:100B400020E030E040E85AE388D720E030E048EC8D
:100B500052E483D7C3D66B01770FEE08FF08A4CD0C
:100B6000CF92DF92FF920F931F93CF93DF9300D02A
:100B700000D000D0CDB7DEB7F82EBDDC88E8B3DCFE
:100B800084E266DC80E064DC8FE39CE90197F1F7A6
:100B900000C0000089E899DC8E010F5F1F4F6E01D5
:100BA00096E0C90ED11C80E025DCF80181938F010D
:100BB000EC15FD05C1F781E01DDC7CDCF1E0FF16E2
:100BC00079F16981862F90E0982F88276A81680FD4
:100BD000792F711D90E080E0B2D620E03FEF4FE723
:100BE00057E414D620E030E04FE253E436D720E05B
:100BF00030E044E352E4A5D520E030E048EC52E494
:100C00002CD771D626960FB6F894DEBF0FBECDBF97
:100C1000DF91CF911F910F91FF90DF90CF900895BA
:100C20006C81862F90E0982F88276D81680F792F2F
:100C3000711D90E080E083D620E03FEF4FE757E45E
:100C4000E5D520E030E048EC52E407D7D5CFB29BA1
:100C5000FECFA8940895089598E09A95F1F7089525
:100C600008958F938FB78F9382B78E5C82BF8F91D9
:100C70008FBF8F9118951F921FB61F9211248F93CB
:100C80009F93EF93FF938091A70080FF4FC0C39A7B
:100C90008091A70081FF16C08091A7008D7F80936F
:100CA000A7008BEF8EB98091A600880F880F880F60
:100CB00087608FB9FF91EF919F918F911F901FBE19
:100CC0001F9018959091A5008091A4009817C9F0E5
:100CD0008091A70082608093A700E091A400EF5F5D
:100CE000EF71E093A400F0E0EC57FF4F8081809318
:100CF000A6008BEF8EB98091A600869586958068B8
:100D0000D8CFC3988091A7008E7F8093A70013BE91
:100D100088B3836088BB87B38C7F87BB1DB880E2B4
:100D20008ABF8BB780628BBFA89AC4CFC3988091CB
:100D3000A7008B7F8093A700E0918300EF5FEF71A6
:100D4000809182008E1304C08091A7008860DDCF5F
:100D5000E09383008FB1F0E0EE59FF4F8083D7CF4F
:100D60008F938FB78F93B09919C081E182BF82B7FB
:100D7000885682BF81E08CBD83BF82E088BF89B77F
:100D8000826089BF84E58DB987EF8EB98BB78F7D7F
:100D90008BBF8091A70084608093A7008F918FBF45
:100DA0008F911895CDB7DEB7CA54D1400FB6F894DD
:100DB000DEBF0FBECDBFF89480E090E0ACD4482EEB
:100DC00075DABA98BC98C4988FEB93E00197F1F765
:100DD00000C0000010928200109283001092A400C4
:100DE0001092A500BB9AC39888B3836088BB87B371
:100DF0008C7F87BB1DB880E28ABF8BB780628BBFB8
:100E0000A89A78948E010F5D1E4FD8011B96C75B80
:100E1000DE4FB983A883C954D140FE013296CE5B20
:100E2000DE4FF983E883C254D140A89590918300A6
:100E3000809182009817C9F38FE097E20197F1F74C
:100E400000C000009091830080918200981769F3A0
:100E50005E0196ECA91A9EEFB90AC5010796F50145
:100E6000650121812193E817F907D9F79091830053
:100E7000809182009817D1F3E0918200EF5FEF71CB
:100E8000E0938200F0E0EE59FF4F8081F3D8D50166
:100E900017968C9317979C919411D4CF11969C918F
:100EA0002DEF290F223010F0963061F6F501868083
:100EB000982EEFEFFFEFD801ED93FC937501F6E06C
:100EC000EF0EF11CB801D5018D915D01BBD8AE14B8
:100ED000BF04C1F7F801808191818816990609F055
:100EE000B1CFD6011296ED90FC901397FE24EF241B
:100EF000FE241596BC90159714969C9114974082E9
:100F000011968C91843009F488C0863009F4CEC2E1
:100F1000833009F097CF8183E114F10449F4B1E003
:100F2000BB1290CF82E082831382148267E024C0D8
:100F3000E1E0EE16F10419F5F2E0BF1283CF84E090
:100F4000D80112968C931297EEE1F0E0E49113969B
:100F5000EC931397EFE1F0E0E4911496EC9314977F
:100F6000E0E2F0E0E4911596EC931597E1E2F0E011
:100F7000E4911696EC9369E0C801D7D863CFB2E04C
:100F8000EB16F10479F4E1E0BE125CCF82E0D80107
:100F900012968C9380E090E0BED3482EF801138225
:100FA0008483C4CFF3E0EF16F104B9F422E0B21267
:100FB00049CF84E0D80112968C9378D96091D00003
:100FC0007091D1008091D2009091D3009DD3F8010F
:100FD0006383748385839683CECFF4E0EF16F104A8
:100FE00009F030CFD60115968C91823009F02ACFC6
:100FF00084E0F80182835AD96091CC007091CD00D1
:101000008091CE009091CF007FD3D80113966D933D
:101010007D938D939C931697AECF8183E114F10459
:1010200009F082C0F1E0BF120DCF82E0D801129624
:101030008C93129713961C92139780E214968C93BC
:1010400067E0C80172D8C70180559241029708F441
:1010500016C2B0E2EB16B2E1FB0609F09BC1F60145
:101060008581823009F0EECE84E0D80112968C930F
:1010700080916100811113C0F89486E434DA81E133
:10108000E7D918DA7894BFE7E0E2F5E0B150E04044
:10109000F040E1F700C0000081E080936100F89427
:1010A0002ADA87E420DA80E0A5D9282F2695C95BC3
:1010B000DE4F2883C754D140879588278795CA5B20
:1010C000DE4F8883C654D14081E094D9D82EE82ED3
:1010D000E694CA5BDE4F48815981C654D1404E0D1B
:1010E000511D7A01E7D97894B70190E080E027D4C8
:1010F00020E030E0A901D0FE04C020E030E040E074
:101100005FE320D32AE939E949E95FE37FD3D801D6
:1011100013969C93139714968C93149715967C931F
:10112000159716966C9327CFB1E0EB16F10409F0F2
:10113000F8C0E1E0BE1286CE82E0D80112968C9310
:10114000129713961C92F894FE0131964F0110826B
:1011500011821282138214821582168217821086DF
:101160003996E017F10799F745D8811110C07894A6
:1011700080E0D4019C91903109F48F5FB9E08B0E2F
:10118000911C08151905A9F7F801848359CFCE5B86
:10119000DE4FE881C254D140CD5BDE4FF881C354AD
:1011A000D140CB5BDE4F1882C554D1402E2ECC5B94
:1011B000DE4FF883C454D140312C88E0A22DCC5BA3
:1011C000DE4FB881C454D14001900D928A95E1F769
:1011D00011D880EF48D85524539477247394A22CC7
:1011E000CC5BDE4FB880C454D140612CE1D7C85BE2
:1011F000DE4F8883C854D140DBD7C85BDE4F3881CF
:10120000C854D140332309F48DC1811169C0D5017F
:101210008C9187298C93D5018C91872109F45EC02C
:1012200013D85394770C29F4BFEFAB1ABB0A772479
:101230007394E1E45E12DACF832D90E069E070E010
:1012400017D2880D991DE0E1DC01EC933394832DD6
:1012500090E069E070E00CD2880D991D0196CB5B9F
:10126000DE4F6882C554D140E22DCC5BDE4FF88161
:10127000C454D14061100EC09E01275F3F4F90E0E3
:10128000391231C07894662009F472CF61E1C80147
:1012900088D7D9CE282ECC5BDE4F9883C454D1405A
:1012A0008CCFCB5BDE4FF881C554D140F51104C023
:1012B0009729D5019C93AFCFCB5BDE4FB881C55446
:1012C000D140B51538F4872D80959823F50190838A
:1012D000652CA1CF972109F09ECFFACFA6D7A1CF39
:1012E00066246A94A9CFF901379780E0519148E0CC
:1012F000652F6827869560FF02C06CE886275695A3
:101300004150B1F72E173F0789F7275F3F4FF9018B
:1013100039974081481302C09F5FB2CF66246A9418
:10132000B1CF97013A952132310508F006C1F4E0BA
:10133000BF1288CD88E0D80112968C93970133278D
:10134000C90169E070E094D1E1E0F0E0EC0FFD1F2D
:101350008E0F9F1FDC018C91803109F089C0C9017B
:1013600069E070E085D10196E1E0F0E0EC0FFD1F4F
:10137000E80FF91FD801139681918D93C75BDE4F5B
:1013800028813981C954D140A217B307A9F76DE06C
:10139000C801CBD6C70180549241039708F052CDC3
:1013A000F6018581823009F04DCD84E0D801129696
:1013B0008C938091600081114CC09DD88CEE93D8A5
:1013C00088E846D88DEE81D898EAC92E90E0D92ECB
:1013D00080E010D8F60181936F01F0ECCF16F0E0B9
:1013E000DF06B1F781E006D88093C10063D88CEEA8
:1013F0007AD881EE2DD88DEE68D881ECC82E80E0A9
:10140000D82E80E0F7D7D6018D936D01B8ECCB16BE
:10141000B0E0DB06B1F781E0EDD78093C9004AD890
:101420008CEE61D882EF14D881E012D843D88CEECC
:101430005AD884EF0DD887E20BD83CD88CEE53D81D
:1014400085EF06D880EA04D835D834D881E0809377
:10145000600080E0E0E4EE16E2E1FE0639F081E0B3
:10146000F1E4EF16F2E1FF0609F082E052D818C06D
:1014700062E0C80196D68ECF6DEF7FEFEAC0D6014D
:1014800015968C91823009F0DDCC84E0F8018283DE
:1014900080E0F0E5EF16F2E1FF0609F081E060DBA5
:1014A00050D220E030E048EC52E430CE8183E114A9
:1014B000F10411F591111CC0F1E0BF1219C068E0F0
:1014C000C601E8D52FE738E341E0215030404040E5
:1014D000E1F700C00000F894E2E4EF93EFE4EF934B
:1014E000EFE4EF93E4E5EF93E0E0FEE00994AACCAB
:1014F00063E0C60156D6A6CCEA94EF2809F0A2CC48
:1015000091110DC08FEF8B0D8E3F48F46B2D80E055
:1015100090E009D168E0C601BDD54B2C93CC63E0C7
:10152000C801E8CFD5019C91882309F4BACE872D54
:1015300080959823F50190836ECE97013250213229
:10154000310508F080CD32E0B3127CCCD801129680
:101550008C93FF24C70169E070E08AD0E1E0F0E0FD
:10156000EC0FFD1F8E0F9F1FDC018C9162E080311C
:10157000B9F6F894C70169E070E07AD001967F016E
:10158000E80EF91E37D6882309F476CFC7017AD63C
:1015900084E469D60DD68823E9F32CD6882309F490
:1015A0006BCFC7016FD68EEB5ED616D6F82ECF5C0A
:1015B000DE4F8883C153D1400FD6E82ECE5CDE4F7C
:1015C0008883C253D14008D6CD5CDE4F8883C35395
:1015D000D14002D6CC5CDE4F8883C453D140FCD5C9
:1015E000CB5CDE4F8883C553D140F6D5CA5CDE4F55
:1015F0008883C653D140F0D5C95CDE4F8883C7537A
:10160000D140EAD5C85CDE4F8883C853D140E4D5C9
:10161000C75CDE4F8883C953D140FE01EF5CFE4FAB
:10162000AF01485F5F4F90E0319128E0632F692759
:10163000969560FF02C0BCE89B2736952150B1F714
:101640004E175F0789F77E2D6F2D891711F06EEF0A
:101650007FEF789490E080E072D120E030E040E8C5
:101660005DE3FBD1F801938384837583668383CC28
:101670000024552704C0080E591F880F991F009792
:1016800029F076956795B8F37105B9F7802D952FF8
:101690000895EE27FF27AA27BB2708C0A20FB31F74
:1016A000E41FF51F220F331F441F551F9695879582
:1016B0007795679598F37040A9F7009799F7BD0162
:1016C000CF010895A1E21A2EAA1BBB1BFD010DC07C
:1016D000AA1FBB1FEE1FFF1FA217B307E407F507E2
:1016E00020F0A21BB30BE40BF50B661F771F881FBE
:1016F000991F1A9469F760957095809590959B0154
:10170000AC01BD01CF010895692796276927782785
:10171000872778270895E199FECF9FBB8EBBE09A7B
:1017200099278DB30895262FE199FECF1CBA9FBB50
:101730008EBB2DBB0FB6F894E29AE19A0FBE0196CC
:1017400008955058BB27AA270ED04DC13ED130F086
:1017500043D120F031F49F3F11F41EF433C10EF455
:10176000E095E7FB29C1E92F4FD180F3BA17620753
:1017700073078407950718F071F49EF567C10EF49E
:10178000E0950B2EBA2FA02D0B01B90190010C0191
:10179000CA01A0011124FF27591B99F0593F50F4A9
:1017A000503E68F11A16F040A22F232F342F442701
:1017B000585FF3CF469537952795A795F0405395F9
:1017C000C9F77EF41F16BA0B620B730B840BBAF0C9
:1017D0009150A1F0FF0FBB1F661F771F881FC2F734
:1017E0000EC0BA0F621F731F841F48F48795779548
:1017F0006795B795F7959E3F08F0B3CF9395880FFF
:1018000008F09927EE0F9795879508950CD0EBC0B7
:10181000E3D040F0DAD030F021F45F3F19F0CCC0D3
:10182000511115C1CFC0F0D098F39923C9F35523B6
:10183000B1F3951B550BBB27AA27621773078407C3
:1018400038F09F5F5F4F220F331F441FAA1FA9F379
:1018500033D00E2E3AF0E0E830D091505040E6956B
:10186000001CCAF729D0FE2F27D0660F771F881FCC
:10187000BB1F261737074807AB07B0E809F0BB0BBB
:10188000802DBF01FF2793585F4F2AF09E3F5105DF
:1018900068F092C0DCC05F3FECF3983EDCF38695C5
:1018A00077956795B795F7959F5FC9F7880F911D55
:1018B0009695879597F90895E1E0660F771F881F41
:1018C000BB1F621773078407BA0720F0621B730BF4
:1018D000840BBA0BEE1F88F7E095089504D0689446
:1018E000B111B5C0089598D088F09F5790F0B92FE6
:1018F0009927B751A0F0D1F0660F771F881F991F65
:101900001AF0BA95C9F712C0B13081F09FD0B1E09A
:1019100008959CC0672F782F8827B85F39F0B93FAA
:10192000CCF3869577956795B395D9F73EF4909566
:101930008095709561957F4F8F4F9F4F0895E894E4
:1019400009C097FB3EF490958095709561957F4F07
:101950008F4F9F4F9923A9F0F92F96E9BB279395B5
:10196000F695879577956795B795F111F8CFFAF4C5
:10197000BB0F11F460FF1BC06F5F7F4F8F4F9F4FF6
:1019800016C0882311F096E911C0772321F09EE854
:10199000872F762F05C0662371F096E8862F70E0BA
:1019A00060E02AF09A95660F771F881FDAF7880F94
:1019B0009695879597F9089597F99F6780E870E065
:1019C00060E008959FEF80EC089500240A941616B5
:1019D000170618060906089500240A94121613061D
:1019E000140605060895092E0394000C11F48823AB
:1019F00052F0BB0F40F4BF2B11F460FF04C06F5FC7
:101A00007F4F8F4F9F4F089557FD9058440F551F9C
:101A100059F05F3F71F04795880F97FB991F61F070
:101A20009F3F79F087950895121613061406551FE7
:101A3000F2CF4695F1DF08C0161617061806991F53
:101A4000F1CF86957105610508940895E894BB2748
:101A500066277727CB0197F908950AD0C4CFB5DF61
:101A600028F0BADF18F0952309F0A6CFABCFEFCF5F
:101A7000CBDFA8F39923D9F35523C9F3950F50E091
:101A8000551FAA27EE27FF27BB2700240894679538
:101A900020F4E20FF31FB41F0A1E220F331F441F4E
:101AA000AA1F6695A9F7779530F4F30FB41F0A1EA5
:101AB000121E08F46395330F441FAA1F221F769548
:101AC00099F7879520F4B40F0A1E121E631F440F66
:101AD000AA1F221F331F8695A9F7862F712D602D0F
:101AE00011249F5750408AF0E1F088234AF0EE0F0E
:101AF000FF1FBB1F661F771F881F91505040A9F71B
:101B00009E3F510570F058CFA2CF5F3FECF3983E57
:101B1000DCF3869577956795B795F795E7959F5F81
:101B2000C1F7FE2B880F911D9695879597F908951B
:041B3000F894FFCF57
:00000001FF
