:1000000010C01FC086C31DC01CC004C31AC019C0C5
:1000100018C017C016C015C014C013C005C3302EB9
:10002000303411241FBECFE5D2E0DEBFCDBF20E0CB
:10003000A0E6B0E001C01D92AF3AB207E1F78BD362
:10004000FAC9DECFFB0120813181A9014827CA010D
:1000500028E0AC014170552796958795452B21F0F6
:1000600051E0852750EA9527215099F7FB019183AC
:1000700080830895982F96959575880F8A7A982B86
:10008000892F869586958373990F990F9C7C892B70
:1000900082950895CF92DF92EF92FF920F931F9374
:1000A000CF93DF939C01FF24F39482E0D82E94E554
:1000B000C92EEE24EA94062F020FE90189911091CE
:1000C000A4001F5F1F719091A3001917E1F3D2DF05
:1000D000E12FF0E0ED57FF4F80831093A400809153
:1000E000A60080FD16C08091A60082FDFCCFF8948A
:1000F00012BEFCBCF3BED8BE89B7826089BFCDB842
:10010000EFB8EEB8B99A8091A60081608093A600FE
:1001100078949E010C13D1CFDF91CF911F910F9155
:10012000FF90EF90DF90CF900895BF92CF92DF9233
:10013000EF92FF920F931F93CF93DF9300D0CDB731
:10014000DEB78C01D62E8EEFC82EC60E8FEF9FEF36
:100150009A838983B02E7801BE016F5F7F4FF701CC
:1001600081917F016FDF8E2D8B198C15A8F339815A
:100170002A81C8018D0D911DFC01329730830197B2
:10018000FC0120836D2DC80185DF0F900F90DF915A
:10019000CF911F910F91FF90EF90DF90CF90BF9084
:1001A0000895FC01218120582183628365E0BDCF41
:1001B0009FB7F894BC9AC49820E12A95F1F7BC98AF
:1001C000C49888E18A95F1F786B322E92A95F1F778
:1001D00000C09FBF80710895CF93DF93D8E0C0E047
:1001E000C695E6DF8111C068D150D1F78C2FDF9121
:1001F000CF9108959FB7F894BC9AC498EFEBF3E0C1
:100200003197F1F700C00000BC98C498FAEBFA955A
:10021000F1F700C086B3E3E3F3E03197F1F700C0F4
:1002200000009FBF8095807108958FB7F894BC9AA5
:10023000C49890EA9A95F1F7BC98C4989AE19A9577
:10024000F1F700C08FBF08958FB7F894BC9AC49897
:1002500090E19A95F1F7BC98C4989AEA9A95F1F7CB
:1002600000C08FBF0895CF93DF93D82FC8E0D0FF91
:1002700007C0EADFD695C150D1F7DF91CF9108953D
:10028000D4DFF8CF0F931F93CF93DF93EC0185E575
:10029000EADF8E01085F1F4F8991E5DFC017D107A4
:1002A000D9F7DF91CF911F910F9108958F929F926F
:1002B000AF92BF92CF92DF92EF92FF92CF9386B12F
:1002C000877D86B9379A8FE887B98FE99FE00197D4
:1002D000F1F700C00000C4E0C12CD12C7601369AA1
:1002E0003699FECF64B175B190E080E0ADD79B0147
:1002F000AC01C701B601AED66B017C01C15079F7E4
:1003000020E030E040E85EE32BD84B015C013798F9
:10031000379A8CE187B98FE99FE00197F1F700C028
:100320000000C4E0C12CD12C7601369A3699FECF5C
:1003300064B175B190E080E087D79B01AC01C70143
:10034000B60188D66B017C01C15079F720E030E01E
:1003500040E85EE305D89B01AC016DEC7CEC8CE8D9
:1003600094E4DCD66B017C01379820E030E040E279
:1003700051E4F6D73BD7CDE06E3128F4613108F473
:1003800061E1CFEEC60FC092AB00D092AC00E0921C
:10039000AD00F092AE0023E333E748E853E4C50133
:1003A000B40157D62AE939E949E85FE3B7D66B01CA
:1003B0007C016C2F70E090E080E044D720E030E0DA
:1003C00040E551E4ABD69B01AC01C701B60142D672
:1003D0006093A7007093A8008093A9009093AA004F
:1003E000CF91FF90EF90DF90CF90BF90AF909F9014
:1003F0008F90089571E0BA9ABC9800000000000048
:1004000004D1BA9802D1A894000000000000B29B69
:10041000F7D0B2F08894B4990894771F60F7BA9A2D
:10042000803011F0BC9801C0BC9A000000000000B0
:10043000ECD0BA98A89400000000B29BE1D0E5D0BF
:1004400000000000BA9A872F9927089580E2089546
:100450000894881F01C0880FB9F0BA9A0000000004
:10046000000018F40000BC9802C0BC9A00C0CDD0B7
:10047000BA98A894000000000000B29BC1D012F40A
:10048000882712C0C2D0E7CFBA9A00000000BC98FB
:10049000BCD099278827BA98A8940000B29BB0D006
:1004A0007AF3B49B81E0B1D000000000BA9A0895BD
:1004B00081E00895BA9ABC9AA8D0BA98A6D0B29B07
:1004C0009FD0BC98A2D078940895F894BA9A9DD001
:1004D000BC989BD0BA9899D0B29B92D0BC9A95D038
:1004E000B7CF81E00895F894B29B8AD0BC9A8DD0A2
:1004F000AFCF81E00895BC98BA98C498C298882775
:100500009927B49B0895B29B089581E0089581E0F6
:100510000895CF92DF92FF920F931F93CF93DF93B3
:1005200000D000D000D0CDB7DEB7F82EE4DF88E8E9
:10053000DADF84E28DDF80E08BDF8FE39CE90197D7
:10054000F1F700C0000089E8C0DF8E010F5F1F4F88
:100550006E0196E0C90ED11C80E04CDFF80181935A
:100560008F01EC15FD05C1F781E044DFA3DFF1E069
:10057000FF1679F16981862F90E0982F88276A818C
:10058000680F792F711D90E080E05CD620E03FEF8E
:100590004FE757E4C3D520E030E04FE253E4E0D624
:1005A00020E030E044E352E454D520E030E048EC71
:1005B00052E4D6D61BD626960FB6F894DEBF0FBEF1
:1005C000CDBFDF91CF911F910F91FF90DF90CF9022
:1005D00008956C81862F90E0982F88276D81680F91
:1005E000792F711D90E080E02DD620E03FEF4FE79E
:1005F00057E494D520E030E048EC52E4B1D6D5CFB2
:10060000B29BFECFA8940895089598E09A95F1F7CB
:10061000089508958F938FB78F9382B78E5C82BFB2
:100620008F918FBF8F9118951F921FB61F92112423
:100630008F939F93EF93FF938091A60080FF4FC00D
:10064000C39A8091A60081FF16C08091A6008D7F7D
:100650008093A6008BEF8EB98091A500880F880F3C
:10066000880F87608FB9FF91EF919F918F911F90B5
:100670001FBE1F9018959091A4008091A300981719
:10068000C9F08091A60082608093A600E091A3004B
:10069000EF5FEF71E093A300F0E0ED57FF4F808133
:1006A0008093A5008BEF8EB98091A50086958695E5
:1006B0008068D8CFC3988091A6008E7F8093A600D3
:1006C00013BE88B3836088BB87B38C7F87BB1DB89C
:1006D00080E28ABF8BB780628BBFA89AC4CFC398D1
:1006E0008091A6008B7F8093A600E0918200EF5F4F
:1006F000EF71809181008E1304C08091A600886004
:10070000DDCFE09382008FB1F0E0EF59FF4F80839F
:10071000D7CF8F938FB78F93B09919C081E182BFE4
:1007200082B7885682BF81E08CBD83BF82E088BFDC
:1007300089B7826089BF84E58DB987EF8EB98BB7A1
:100740008F7D8BBF8091A60084608093A6008F91DF
:100750008FBF8F911895CDB7DEB7CF54D1400FB66C
:10076000F894DEBF0FBECDBFF89480E090E05BD47C
:10077000CC5BDE4F8883C454D14081E090E053D4F9
:10078000CA5BDE4F8883C654D14082E090E04BD4F0
:10079000F82E8CDDBA98BC98C4988FEB93E0019743
:1007A000F1F700C0000010928100109282001092B8
:1007B000A3001092A400BB9AC39888B3836088BB3F
:1007C00087B38C7F87BB1DB880E28ABF8BB78062FE
:1007D0008BBFA89A78948E010F5D1E4F8F2D90E0ED
:1007E000B0E0A0E0C65BDE4F88839983AA83BB8319
:1007F000CA54D140D8011B96C25BDE4FB983A8838F
:10080000CE54D140FE013296CE5BDE4FF983E883B1
:10081000C254D140A8959091820080918100981790
:10082000C9F38FE097E20197F1F700C000009091C3
:10083000820080918100981769F37E0196ECE91A95
:100840009EEFF90AC7010796F701670121812193FD
:100850008E179F07D9F79091820080918100981799
:10086000D1F3E0918100EF5FEF71E0938100F0E060
:10087000EF59FF4F8081FEDBD70117968C931797B6
:100880009C91CC5BDE4FB881C454D1409B13CFCF39
:10089000F70191812DEF290F223010F0963039F6B3
:1008A000D7011696AC90B82E8FEF9FEFF801918389
:1008B00080834701F6E08F0E911CB801D7018D911E
:1008C0007D01C0DB8E149F04C1F7F8018081918106
:1008D000A816B90609F0ABCFD6011296ED90FC90A0
:1008E0001397FE24EF24FE241596BC9015971496BA
:1008F0009C91CC5BDE4FB881C454D140B083F601EB
:100900008181843009F48FC0863009F477C2833046
:1009100009F08DCFD80111968C931197E114F10451
:1009200051F4B1E0BB1283CF82E0F80182831382DD
:10093000148267E023C0F1E0EF16F10411F522E024
:10094000B21275CF84E012968C931297EEE1F0E02C
:10095000E4911396EC931397EFE1F0E0E491149691
:10096000EC931497E0E2F0E0E4911596EC93159780
:10097000E1E2F0E0E4911696EC9369E0C801D5DB82
:1009800056CFB2E0EB16F10499F4E1E0BE124FCF7E
:1009900082E0D80112968C9380E090E044D3CC5B47
:1009A000DE4F8883C454D140F80113828483C1CFC1
:1009B000F3E0EF16F104B9F422E0B21238CF84E08C
:1009C000D80112968C9372DC6091AB007091AC00F0
:1009D0008091AD009091AE001FD3F80163837483C2
:1009E00085839683CACFF4E0EF16F10409F01FCF98
:1009F000D60115968C91823009F019CF84E0F80168
:100A0000828354DC6091A7007091A8008091A900B6
:100A10009091AA0001D3D80113966D937D938D9385
:100A20009C931697AACFF8018183E114F10409F091
:100A300076C0F1E0BF12FBCE82E0D80112968C9313
:100A4000129713961C92139780E214968C9367E08A
:100A5000C8016BDBC70180559241029708F482C13F
:100A6000B0E2EB16B2E1FB0609F0E1CEF6018581BA
:100A7000823009F0DCCE84E0D80112968C9380910C
:100A80006000811113C0F89486E42DDD81E1E0DC83
:100A900011DD7894BFE7E0E2F5E0B150E040F040CE
:100AA000E1F700C0000081E080936000F89423DD4E
:100AB00087E419DD80E09EDC282F2695C85BDE4F99
:100AC0002883C854D140879588278795C95BDE4F16
:100AD0008883C754D14081E08DDCD82EE82EE6947F
:100AE000C95BDE4F88819981C754D1408E0D911D1D
:100AF0007C01E0DC7894B70190E080E0A3D320E0B3
:100B000030E0A901D0FE04C020E030E040E05FE327
:100B1000A1D22AE939E949E95FE300D34FC1B1E045
:100B2000EB16F10409F0E2C0E1E0BE1280CE82E0F3
:100B3000D80112968C93129713961C92F894FE018A
:100B400031963F0110821182128213821482158223
:100B50001682178210863996E017F10799F74ADB5B
:100B6000811110C0789480E0D3019C91903109F4F8
:100B70008F5FB9E06B0E711C06151705A9F7F80118
:100B8000848365CFCE5BDE4FE881C254D140CD5B1C
:100B9000DE4FF881C354D140CB5BDE4F1882C55481
:100BA000D1405E2E4F2E812C88E0A52DB42D0190D2
:100BB0000D928A95E1F71EDB80EF55DB9924939423
:100BC000BB24B394252C342CA12CF2DAC75BDE4F66
:100BD0008883C954D140ECDAC75BDE4FF881C95431
:100BE000D140FF2309F461C1811161C0D1018C9111
:100BF0008B298C93D1018C918B2109F456C024DB75
:100C00009394BB0C29F4BFEF2B1A3B0ABB24B3947B
:100C1000E1E49E12DACF882D90E069E070E0EBD13C
:100C2000860D971DE0E1DC01EC938394882D90E024
:100C300069E070E0E0D1860D971D0196CB5BDE4F39
:100C4000A882C554D140E52DF42DA1100EC09E01FF
:100C5000275F3F4F90E089122DC07894AA2009F4B5
:100C600082CF61E1C8019DDAF5CE582E492E9CCF86
:100C7000CB5BDE4FF881C554D140F91104C09B29EC
:100C8000D1019C93B7CFCB5BDE4FB881C554D14027
:100C9000B91538F48B2D80959823F1019083A92CF8
:100CA000A9CF9B2109F0A6CFFACFBFDAA9CFAA24FA
:100CB000AA94B1CFF901379780E0519148E0652FB0
:100CC0006827869560FF02C06CE8862756954150DC
:100CD000B1F7E217F30789F7275F3F4F40814813C9
:100CE00002C09F5FB8CFAA24AA94B7CF97013A95C4
:100CF0002132310508F0E4C0F4E0BF1298CD88E05D
:100D0000D80112968C93FF24C70169E070E073D17B
:100D1000E1E0F0E0EC0FFD1F8E0F9F1FDC018C91D6
:100D20008031E9F4C70169E070E065D10196E1E046
:100D3000F0E0EC0FFD1FE80FF91FD8011396819129
:100D40008D93C25BDE4F28813981CE54D1402A1762
:100D50003B07A9F76DE012CE6DEF7FEF3DC162E07A
:100D6000C80171C0D60115968C91823009F05FCD13
:100D700084E0F8018283F0E5EF16F2E1FF0659F511
:100D800080E0C7DB61D220E030E048EC52E4C6D11D
:100D90006B017C01CA5BDE4F2881C654D140622FB3
:100DA00070E090E080E04ED220E030E040E251E49C
:100DB000B5D19B01AC01C701B6014CD1D801139646
:100DC0009C93139714968C93149715967C93159770
:100DD00016966C93D2CD81E09CDB36D220E030E0D9
:100DE00048EC52E49BD16B017C01C65BDE4F68810D
:100DF00079818A819B81CA54D140D5CFF801818302
:100E0000E114F10411F591111CC0F1E0BF1219C0F9
:100E100068E0C6013FD92FE738E361E02150304058
:100E20006040E1F700C00000F894E2E4EF93EFE4E3
:100E3000EF93EFE4EF93E4E5EF93E0E0FEE0099455
:100E4000F6CC63E0C601ADD9F2CC81E0E816F1043E
:100E500099F4911128C08FEF8B0D8E3F20F56B2DEB
:100E600080E090E0E8D068E0C60114D9CC5BDE4FAA
:100E7000B882C454D140DBCCA1E1EA16F10409F0F8
:100E8000D6CC911110C0BFEFBB1669F06B2D81E07D
:100E900090E0D1D068E0C601FDD8CA5BDE4FB882D1
:100EA000C654D140C4CC63E05BCFF101908188236C
:100EB00009F4DECE8B2D80959823F10190839ACE94
:100EC000970132502132310508F0C4CD32E0B3121F
:100ED000AECCD80112968C93FF24C70169E070E074
:100EE0008AD0E1E0F0E0EC0FFD1F8E0F9F1FDC01C8
:100EF0008C91803109F033CFF894C70169E070E03C
:100F00007AD001967F01E80EF91E74D9882309F47E
:100F100023CFC701B7D984E4A6D94AD98823E9F3F6
:100F200069D9882309F418CFC701ACD98EEB9BD9B6
:100F300053D9F82ECF5CDE4F8883C153D1404CD9B2
:100F4000E82ECE5CDE4F8883C253D14045D9CD5CBC
:100F5000DE4F8883C353D1403FD9CC5CDE4F8883BA
:100F6000C453D14039D9CB5CDE4F8883C553D140BF
:100F700033D9CA5CDE4F8883C653D1402DD9C95CB2
:100F8000DE4F8883C753D14027D9C85CDE4F8883A2
:100F9000C853D14021D9C75CDE4F8883C953D140A3
:100FA000FE01EF5CFE4FAF01485F5F4F90E0319173
:100FB00028E0632F6927969560FF02C0BCE89B2755
:100FC00036952150B1F74E175F0789F77E2D6F2DAB
:100FD000891711F06EEF7FEF789490E080E032D1C6
:100FE00020E030E040E85DE3BBD1F80193838483E7
:100FF00075836683C2CC0024552704C0080E591F90
:10100000880F991F009729F076956795B8F37105B9
:10101000B9F7802D952F0895692796276927782796
:10102000872778270895E199FECF9FBB8EBBE09A72
:1010300099278DB30895262FE199FECF1CBA9FBB47
:101040008EBB2DBB0FB6F894E29AE19A0FBE0196C3
:1010500008955058BB27AA270ED048C139D130F087
:101060003ED120F031F49F3F11F41EF42EC10EF456
:10107000E095E7FB24C1E92F4AD180F3BA17620754
:1010800073078407950718F071F49EF562C10EF49A
:10109000E0950B2EBA2FA02D0B01B90190010C0188
:1010A000CA01A0011124FF27591B99F0593F50F4A0
:1010B000503E68F11A16F040A22F232F342F4427F8
:1010C000585FF3CF469537952795A795F0405395F0
:1010D000C9F77EF41F16BA0B620B730B840BBAF0C0
:1010E0009150A1F0FF0FBB1F661F771F881FC2F72B
:1010F0000EC0BA0F621F731F841F48F4879577953F
:101100006795B795F7959E3F08F0B3CF9395880FF5
:1011100008F09927EE0F9795879508950CD0E6C0B3
:10112000DED040F0D5D030F021F45F3F19F0C7C0D9
:10113000511110C1CAC0EBD098F39923C9F35523BC
:10114000B1F3951B550BBB27AA27621773078407BA
:1011500038F09F5F5F4F220F331F441FAA1FA9F370
:1011600033D00E2E3AF0E0E830D091505040E69562
:10117000001CCAF729D0FE2F27D0660F771F881FC3
:10118000BB1F261737074807AB07B0E809F0BB0BB2
:10119000802DBF01FF2793585F4F2AF09E3F5105D6
:1011A00068F08DC0D7C05F3FECF3983EDCF38695C6
:1011B00077956795B795F7959F5FC9F7880F911D4C
:1011C0009695879597F90895E1E0660F771F881F38
:1011D000BB1F621773078407BA0720F0621B730BEB
:1011E000840BBA0BEE1F88F7E095089598D088F02D
:1011F0009F5790F0B92F9927B751A0F0D1F0660F03
:10120000771F881F991F1AF0BA95C9F712C0B1301D
:1012100081F09FD0B1E008959CC0672F782F882778
:10122000B85F39F0B93FCCF3869577956795B3955C
:10123000D9F73EF490958095709561957F4F8F4FCB
:101240009F4F0895E89409C097FB3EF490958095D0
:10125000709561957F4F8F4F9F4F9923A9F0F92F7C
:1012600096E9BB279395F695879577956795B795FA
:10127000F111F8CFFAF4BB0F11F460FF1BC06F5FE0
:101280007F4F8F4F9F4F16C0882311F096E911C0F2
:10129000772321F09EE8872F762F05C0662371F013
:1012A00096E8862F70E060E02AF09A95660F771F27
:1012B000881FDAF7880F9695879597F9089597F91B
:1012C0009F6780E870E060E008959FEF80EC0895EC
:1012D00000240A9416161706180609060895002415
:1012E0000A9412161306140605060895092E03948F
:1012F000000C11F4882352F0BB0F40F4BF2B11F403
:1013000060FF04C06F5F7F4F8F4F9F4F089557FD61
:101310009058440F551F59F05F3F71F04795880F63
:1013200097FB991F61F09F3F79F0879508951216FA
:1013300013061406551FF2CF4695F1DF08C01616A6
:1013400017061806991FF1CF869571056105089457
:101350000895E894BB2766277727CB0197F908956E
:101360000AD0C4CFB5DF28F0BADF18F0952309F012
:10137000A6CFABCFEFCFCBDFA8F39923D9F355237B
:10138000C9F3950F50E0551FAA27EE27FF27BB276B
:1013900000240894679520F4E20FF31FB41F0A1E7F
:1013A000220F331F441FAA1F6695A9F7779530F4C3
:1013B000F30FB41F0A1E121E08F46395330F441F67
:1013C000AA1F221F769599F7879520F4B40F0A1E5D
:1013D000121E631F440FAA1F221F331F8695A9F7F1
:1013E000862F712D602D11249F5750408AF0E1F017
:1013F00088234AF0EE0FFF1FBB1F661F771F881F51
:1014000091505040A9F79E3F510570F058CFA2CFA0
:101410005F3FECF3983EDCF3869577956795B7953B
:10142000F795E7959F5FC1F7FE2B880F911D969565
:0A143000879597F90895F894FFCF0F
:00000001FF
