:1000000010C02AC0E4C528C027C062C525C024C0CE
:1000100023C022C021C020C01FC01EC063C5302E17
:10002000303611241FBECFE5D2E0DEBFCDBF10E0D9
:10003000A0E6B0E0ECEEFBE102C005900D92A43624
:10004000B107D9F720E0A4E6B0E001C01D92A53BBE
:10005000B207E1F7DED5C8CDD3CFFB0120813181D6
:10006000A9014827CA0128E0AC014170552796959F
:100070008795452B21F051E0852750EA952721509F
:1000800099F7FB01918380830895982F9695957534
:10009000880F8A7A982B892F869586958373990F76
:1000A000990F9C7C892B82950895CF92DF92EF92D5
:1000B000FF920F931F93CF93DF939C01FF24F39440
:1000C00082E0D82E94E5C92EEE24EA94062F020F82
:1000D000E90189911091AA001F5F1F719091A900F9
:1000E0001917E1F3D2DFE12FF0E0E757FF4F8083EC
:1000F0001093AA008091AC0080FD16C08091AC00E6
:1001000082FDFCCFF89412BEFCBCF3BED8BE89B70A
:10011000826089BFCDB8EFB8EEB8B99A8091AC00D3
:1001200081608093AC0078949E010C13D1CFDF9155
:10013000CF911F910F91FF90EF90DF90CF90089596
:10014000BF92CF92DF92EF92FF920F931F93CF93C4
:10015000DF9300D0CDB7DEB78C01D62E8EEFC82E40
:10016000C60E8FEF9FEF9A838983B02E7801BE0170
:100170006F5F7F4FF70181917F016FDF8E2D8B19AC
:100180008C15A8F339812A81C8018D0D911DFC01C0
:10019000329730830197FC0120836D2DC80185DFE4
:1001A0000F900F90DF91CF911F910F91FF90EF90E3
:1001B000DF90CF90BF900895FC01218120582183CA
:1001C000628365E0BDCF9FB7F894BC9AC49820E1E4
:1001D0002A95F1F7BC98C49888E18A95F1F786B31F
:1001E00022E92A95F1F700C09FBF80710895CF934F
:1001F000DF93D8E0C0E0C695E6DF8111C068D1503A
:10020000D1F78C2FDF91CF9108959FB7F894BC9AC6
:10021000C498EFEBF3E03197F1F700C00000BC9811
:10022000C498FAEBFA95F1F700C086B3E3E3F3E084
:100230003197F1F700C000009FBF8095807108954D
:100240008FB7F894BC9AC49890EA9A95F1F7BC9845
:10025000C4989AE19A95F1F700C08FBF08958FB7BF
:10026000F894BC9AC49890E19A95F1F7BC98C49818
:100270009AEA9A95F1F700C08FBF0895CF93DF9364
:10028000D82FC8E0D0FF07C0EADFD695C150D1F71C
:10029000DF91CF910895D4DFF8CF0F931F93CF93C1
:1002A000DF93EC0185E5EADF8E01085F1F4F89913E
:1002B000E5DFC017D107D9F7DF91CF911F910F91DB
:1002C00008958F929F92AF92BF92CF92DF92EF925A
:1002D000FF92CF9386B1877D86B9379A8FE887B929
:1002E0008FE99FE00197F1F700C00000C4E0C12C46
:1002F000D12C7601369A3699FECF64B175B190E073
:1003000080E07BDB9B01AC01C701B6017CDA6B01AD
:100310007C01C15079F720E030E040E85EE3F9DB92
:100320004B015C013798379A8CE187B98FE99FE0E0
:100330000197F1F700C00000C4E0C12CD12C760178
:10034000369A3699FECF64B175B190E080E055DB06
:100350009B01AC01C701B60156DA6B017C01C150AB
:1003600079F720E030E040E85EE3D3DB9B01AC01AD
:100370006DEC7CEC8CE894E4AADA6B017C01379894
:1003800020E030E040E251E4C4DB09DBCDE06E3137
:1003900028F4613108F461E1CFEEC60FC092B100DC
:1003A000D092B200E092B300F092B40023E333E7BE
:1003B00048E853E4C501B40125DA2AE939E949E8F6
:1003C0005FE385DA6B017C016C2F70E090E080E0E8
:1003D00012DB20E030E040E551E479DA9B01AC012A
:1003E000C701B60110DA6093AD007093AE00809340
:1003F000AF009093B000CF91FF90EF90DF90CF903F
:10040000BF90AF909F908F90089571E0BA9ABC987A
:1004100000000000000057D3BA9855D3A8940000FC
:1004200000000000B29B4AD3B2F08894B4990894BB
:10043000771F60F7BA9A803011F0BC9801C0BC9A5F
:100440000000000000003FD3BA98A894000000000C
:10045000B29B34D338D300000000BA9A872F992773
:10046000089580E208950894881F01C0880FB9F0AC
:10047000BA9A00000000000018F40000BC9802C006
:10048000BC9A00C020D3BA98A894000000000000D5
:10049000B29B14D312F4882712C015D3E7CFBA9AAF
:1004A00000000000BC980FD399278827BA98A89419
:1004B0000000B29B03D37AF3B49B81E004D3000025
:1004C0000000BA9A089581E00895BA9ABC9AFBD2C6
:1004D000BA98F9D2B29BF2D2BC98F5D2789408952A
:1004E000F894BA9AF0D2BC98EED2BA98ECD2B29BF9
:1004F000E5D2BC9AE8D2B7CF81E00895F894B29BD8
:10050000DDD2BC9AE0D2AFCF81E00895CF93DF93E4
:10051000C82F80ECF3DF8C2FA6DF81ECE1DF80E0D9
:1005200074DFC82FD0E081E070DFD82BCEDFCE01A2
:10053000DF91CF910895CF93DF93D62FC42F880FEB
:10054000DDDF8D2F90DF8C2F8EDFDF91CF91BDCF40
:10055000CF93482F406868E180E6EDDF80ECCEDF86
:100560008EE281DF81ECBCDF81E04FDFC82FADDFA1
:100570008C2FCF910895CF93C82F462F67E180E647
:10058000DADF4C2F406A68E180E6D5DF80ECB6DF29
:100590008EE269DF81ECA4DF81E037DFC82F95DFD1
:1005A0008C2FCF910895BC98BA98C498C298882788
:1005B0009927B49B0895B29B089581E0089581E046
:1005C00008952F923F924F925F926F927F928F92F7
:1005D0009F92AF92BF92CF92DF92EF92FF920F93D2
:1005E0001F93CF93DF93CDB7DEB764970FB6F89420
:1005F000DEBF0FBECDBFA82ED6DF8EEE7FDF8EE82A
:1006000032DF8FEE6DDF80E000DF898380E0FDDE8A
:100610008A8380E0FADE8B8380E0F7DE8C8380E0E3
:10062000F4DE182F80E0F1DE982E80E0EEDE8D8380
:1006300080E0EBDE8E8380E0E8DE8F8380E0E5DE25
:10064000888780E0E2DE898780E0DFDE8A8780E0DD
:10065000DCDE8B8780E0D9DE8C8780E0D6DE8D877C
:1006600080E0D3DE8E8780E0D0DE8F8781E0CDDE34
:10067000888B2BDF8EEE42DF87EFF5DE8FEE30DFEB
:1006800080E0C3DE082F80E0C0DE898B80E0BDDE25
:100690008A8B80E0BADE90E0B0E0A0E02C013D0162
:1006A0008CE0440C551C661C771C8A95D1F780E0C1
:1006B000ACDE90E0B0E0A0E06C017D0194E0CC0CF9
:1006C000DD1CEE1CFF1C9A95D1F7C428D528E6281E
:1006D000F72881E09ADE82958F70C82AF6DE8EEECA
:1006E0000DDF88E8C0DE8FEEFBDE80E08EDE282F97
:1006F00030E03C8B2B8B80E088DE4B895C89582B6B
:100700005C8B4B8B80E081DEB82E80E07EDE282E75
:1007100080E07BDE882E81E078DE382ED6DE8B8985
:100720009C89AC0170E060E02601370124E07594FB
:100730006794579447942A95D1F7441A550A660A44
:10074000770AD701C60133E0B595A79597958795A8
:100750003A95D1F7440F551F661F771F6C017D0135
:10076000C41AD50AE60AF70AC701B601322D2B2DA5
:10077000032E000C440B550BEDD76B017C01FBE005
:10078000F594E794D794C794FA95D1F7A301920111
:10079000C301B201DFD7ACE0959587957795679552
:1007A000AA95D1F7332D282D032E000C440B550BA1
:1007B000D1D7BEE09595879577956795BA95D1F78E
:1007C0006C0D7D1D8E1D9F1DDD24D394AD1469F12C
:1007D00025E030E040E050E0BDD74B015C0120E86F
:1007E000820E911CA11CB11C892C9A2CAB2CBB2411
:1007F000A7FCBA94C501B40164960FB6F894DEBFA5
:100800000FBECDBFDF91CF911F910F91FF90EF9061
:10081000DF90CF90BF90AF909F908F907F906F9020
:100820005F904F903F902F9008956B017C01F5945D
:10083000E794D794C7943AEFD31AE108F108C701B7
:10084000B60122E095958795779567952A95D1F71A
:100850009B01AC017FD72B013C01792D612F072E25
:10086000000C880B990BA3019201EDE0559547957B
:1008700037952795EA95D1F76DD74B015C01F3E0E9
:10088000B594A79497948794FA95D1F74C815B819E
:10089000742F652F072E000C880B990BA70196016A
:1008A00059D79595879577956795680D791D8A1D18
:1008B0009B1DB2E19595879577956795BA95D1F788
:1008C00070588F4F9F4FEA81F9813E2F2F2F50E0B4
:1008D00040E040D74B015C011FE0B594A79497948A
:1008E00087941A95D1F781149104A104B10409F4F5
:1008F00081CF2A853985722F632F072E000C880B34
:10090000990BA3019201EBE05595479537952795F3
:10091000EA95D1F71FD72B013C0148855F81742FE1
:10092000652F072E000C880B990BA701960112D793
:10093000AB01BC01440F551F661F771F440D551DA9
:10094000661D771DA2E07595679557954795AA9501
:10095000D1F710E030E020E0BCE0000F111F221FB3
:10096000331FBA95D1F7CE80DD809C2D8D2D092EB9
:10097000000CAA0BBB0BDC0199278827840F951F5D
:10098000A61FB71FBC01CD01FCE095958795779513
:100990006795FA95D1F7E9884E2C512C712C612C72
:1009A000A4E0440C551C661C771CAA95D1F74A8913
:1009B00042954F70442A402A512A622A732A640DB4
:1009C000751D861D971D2BEC33EF4FEF5FEFC2D6E1
:1009D000805B9C4397FD68C0660F771F881F991F37
:1009E000A5019401D0D629013A01C301B20123E047
:1009F00096958795779567952A95D1F7F888EF842E
:100A000067010D2C000CEE08FF089B01AC01A2D67B
:100A10009B01AC016DE056954795379527956A95F2
:100A2000D1F7C701B60196D66B017C017CE0F59445
:100A3000E794D794C7947A95D1F72E853D85722F88
:100A4000632F072E000C880B990BA3019201E2E0A3
:100A50005695479537952795EA95D1F77BD64B0163
:100A60005C01FDE0B594A79497948794FA95D1F72B
:100A70008C0C9D1CAE1CBF1CEC84FB84DE2CCF2C8C
:100A80000D2C000CEE08FF088C0C9D1CAE1CBF1C2E
:100A9000A4E0B594A79497948794AA95D1F7840C71
:100AA000951CA61CB71CA6CEA50194016CD62901E5
:100AB0003A01440C551C661C771C97CFB29BFECFA5
:100AC000A8940895089598E09A95F1F708950895E7
:100AD0008F938FB78F9382B78E5C82BF8F918FBFBA
:100AE0008F9118951F921FB61F9211248F939F9379
:100AF000EF93FF938091AC0080FF4FC0C39A809129
:100B0000AC0081FF16C08091AC008D7F8093AC005B
:100B10008BEF8EB98091AB00880F880F880F8760AC
:100B20008FB9FF91EF919F918F911F901FBE1F90E2
:100B300018959091AA008091A9009817C9F080910A
:100B4000AC0082608093AC00E091A900EF5FEF7190
:100B5000E093A900F0E0E757FF4F80818093AB005E
:100B60008BEF8EB98091AB00869586958068D8CF43
:100B7000C3988091AC008E7F8093AC0013BE88B385
:100B8000836088BB87B38C7F87BB1DB880E28ABF38
:100B90008BB780628BBFA89AC4CFC3988091AC00FA
:100BA0008B7F8093AC00E0918800EF5FEF718091C4
:100BB00087008E1304C08091AC008860DDCFE09385
:100BC00088008FB1F0E0E959FF4F8083D7CF8F9332
:100BD0008FB78F93B09919C081E182BF82B78856D1
:100BE00082BF81E08CBD83BF82E088BF89B782600D
:100BF00089BF84E58DB987EF8EB98BB78F7D8BBFA9
:100C00008091AC0084608093AC008F918FBF8F91F6
:100C10001895CDB7DEB7CA54D1400FB6F894DEBFF1
:100C20000FBECDBFF89480E090E0D6D5882E49DB8A
:100C3000BA98BC98C4988FEB93E00197F1F700C085
:100C4000000010928700109288001092A900109264
:100C5000AA00BB9AC39888B3836088BB87B38C7F94
:100C600087BB1DB880E28ABF8BB780628BBFA89A12
:100C700078948E010F5D1E4FD8011B96C75BDE4F27
:100C8000B983A883C954D140FE013296CE5BDE4FB2
:100C9000F983E883C254D140A8959091880080914F
:100CA00087009817C9F38FE097E20197F1F700C02A
:100CB00000009091880080918700981769F33E01A9
:100CC00096EC691A9EEF790AC3010796F301630156
:100CD00021812193E817F907D9F790918800809135
:100CE00087009817D1F3E0918700EF5FEF71E093F1
:100CF0008700F0E0E959FF4F8081C7D9D3011796EB
:100D00008C9317979C919811D4CF11969C912DEFAD
:100D1000290F223010F0963061F6F301E680F82EAC
:100D2000EFEFFFEFD801ED93FC935301F6E0AF0E28
:100D3000B11CB801D3018D913D018FD96A147B0498
:100D4000C1F7F80180819181E816F90609F0B1CF69
:100D5000D6011296ED90FC901397FE24EF24FE240A
:100D60001596BC90159714969C91149780821196B5
:100D70008C91843009F488C0863009F4CDC3833067
:100D800009F097CF8183E114F10449F4B1E0BB127B
:100D900090CF82E082831382148267E024C0E1E076
:100DA000EE16F10419F5F2E0BF1283CF84E0D8010A
:100DB00012968C931297EEE1F0E0E4911396EC9387
:100DC0001397EFE1F0E0E4911496EC931497E0E2CE
:100DD000F0E0E4911596EC931597E1E2F0E0E491F0
:100DE0001696EC9369E0C801ABD963CFB2E0EB167D
:100DF000F10479F4E1E0BE125CCF82E0D8011296F2
:100E00008C9380E090E0E8D4882EF80113828483EC
:100E1000C4CFF3E0EF16F104B9F422E0B21249CFE7
:100E200084E0D80112968C934CDA6091B1007091F5
:100E3000B2008091B3009091B400C7D4F8016383ED
:100E4000748385839683CECFF4E0EF16F10409F026
:100E500030CFD60115968C91823009F02ACF84E0EC
:100E6000F80182832EDA6091AD007091AE0080911E
:100E7000AF009091B000A9D4D80113966D937D93E3
:100E80008D939C931697AECF8183E114F10409F002
:100E90005BC0F1E0BF120DCF82E0D80112968C93B7
:100EA000129713961C92139780E214968C9367E026
:100EB000C80146D9C7019251029708F07AC1D601FC
:100EC00015968C91823009F0F4CE84E0F80182838B
:100ED000E114F2E1FF0609F0DBC165DB80E80EDB1F
:100EE00083EEC1DA81E8FCDA80E08FDAE82EF12CBB
:100EF000FE2CEE2481E089DAE82AE7DAB70190E0F7
:100F000080E02DEC35E540E050E024D4EDE096950E
:100F1000879577956795EA95D1F76250774B810968
:100F200091096BD520E030E04AE754E4D0D4D801F1
:100F300013969C93139714968C93149715967C9301
:100F4000159716966C934ECFB1E0EB16F10409F0AD
:100F5000F7C0E1E0BE12ADCE82E0D80112968C93CC
:100F6000129713961C92F894FE0131961F0110827D
:100F700011821282138214821582168217821086C1
:100F800039960E171F0799F740D9811110C0789430
:100F900080E0D1019C91903109F48F5FB9E02B0E74
:100FA000311C02151305A9F7F801848380CFCE5BAD
:100FB000DE4FE881C254D140CD5BDE4FF881C3548F
:100FC000D140CB5BDE4F1882C554D1406E2ECC5B36
:100FD000DE4FF883C454D140712C88E0A62DCC5B41
:100FE000DE4FB881C454D14001900D928A95E1F74B
:100FF0000CD980EF43D9AA24A394BB24B394462CE4
:10100000CC5BDE4F5880C454D140912CDCD8C85BF7
:10101000DE4F8883C854D140D6D8C85BDE4F4881A4
:10102000C854D140442309F4B3C281116AC0D2012B
:101030008C918B298C93D2018C918B2109F45FC008
:101040000ED9A394BB0C29F4BFEF4B1A5B0ABB2447
:10105000B394E1E4AE12DACF872D90E069E070E05E
:1010600068D3820D931DE0E1DC01EC937394872D2E
:1010700090E069E070E05DD3820D931D0196CB5B3B
:10108000DE4F9882C554D140E62DCC5BDE4FF8810F
:10109000C454D14091100FC09E01275F3F4F90E094
:1010A0006CE8791231C07894992009F471CF61E12C
:1010B000C80182D8FFCE682ECC5BDE4F9883C45423
:1010C000D1408BCFCB5BDE4FF881C554D140AF12FE
:1010D00004C09B29D2019C93AECFCB5BDE4FB8817D
:1010E000C554D140BA1538F48B2D80959823F20160
:1010F00090839A2CA0CF9B2109F09DCFFACFA0D846
:10110000A0CF99249A94A8CFF901379780E0519104
:1011100048E0782F7527869570FD862756954150B3
:10112000C1F72E173F0799F7275F3F4FF90139970E
:101130004081481302C09F5FB4CF99249A94B3CFE3
:1011400097013A952132310508F02DC2F4E0BF1223
:10115000B0CD88E0D80112968C9397013327C9014E
:1011600069E070E0E6D2E1E0F0E0EC0FFD1F8E0FE9
:101170009F1FDC018C91803109F07FC0C90169E0BB
:1011800070E0D7D20196E1E0F0E0EC0FFD1FE80F30
:10119000F91FD801139681918D93C75BDE4F48816B
:1011A0005981C954D140A417B507A9F76DE0C8010A
:1011B000C7D7C70180519241039708F48EC0F0E26F
:1011C000EF16F2E1FF0609F08BC2D60115968C915D
:1011D000823009F06ECD84E0F80182838091650051
:1011E000811113C0F89486E489D981E13CD96DD985
:1011F0007894FFE720E245E0F15020404040E1F7DD
:1012000000C0000081E080936500F894CCD987E4A9
:1012100075D980E0FAD8582F5695C95BDE4F5883B0
:10122000C754D140879588278795CA5BDE4F88834E
:10123000C654D14081E0E9D8D82EE82EE694CA5BA6
:10124000DE4F88819981C654D1408E0D911D7C015D
:101250003CD97894B70190E080E0CDD320E030E035
:10126000A901D0FE04C020E030E040E05FE3CBD233
:101270002AE939E949E95FE359CE62E0C8019CD720
:1012800098CF6DEF7FEF1BC262E0C80195D728C2EF
:101290008AD980E833D985EEE6D881E821D980E083
:1012A000B4D8E82EF12CFE2CEE2481E0AED8E82A4A
:1012B0000CD9B70190E080E029E03DE340E050E048
:1012C00049D24DE096958795779567954A95D1F7E0
:1012D000605777418109910924CEF60185818230DA
:1012E00009F0E7CC84E0D80112968C9380916600D7
:1012F000811173C0F894EFE5FAEE3197F1F700C071
:10130000000040E068E080E616D940E069E080E651
:1013100012D940E064E080E60ED940E065E080E666
:101320000AD940E066E080E606D940E063E080E666
:1013300002D94FEF61E280E6FED841E068E180E645
:10134000FAD88FE19EE40197F1F700C0000047E171
:1013500067E080E6F0D8AFE1BEE41197F1F700C096
:1013600000004BE763E180E6E6D84BE664E180E607
:10137000E2D841E065E180E6DED840E066E180E663
:10138000DAD860EB81E0F7D840E063E080E6D3D8BC
:1013900041E064E080E6CFD860E08EE0ECD860E029
:1013A0008EE1E9D860E78DE1E6D860E28FE1E3D82D
:1013B00060E081E1E0D860E780E1DDD860E282E1D1
:1013C000DAD840E068E080E6B6D840E069E080E640
:1013D000B2D8789481E080936600B0E1EB16B2E178
:1013E000FB0609F059C0DFD846E068E180E6A3D8E3
:1013F000EFE2F5E73197F1F700C0000082E286D80E
:1014000020916000309161008217930720F490933F
:1014100061008093600020916000309161007C0148
:10142000E21AF30A82E194D8D82E81E191D8412CB6
:10143000512C20E8622E2FE3722ED5FE06C0412CDF
:10144000512C98E6692E91E4792E61E070E002C09B
:10145000660F771F8A95E2F7072E000C880B990B11
:10146000CCD226EF38E24CE150E453D39B01AC01DF
:10147000C301B2012CD22B013C01B70190E080E006
:10148000BAD29B01AC01C301B20143D3F8019383EB
:10149000848375836683A6CCF1E1EF16F2E1FF0643
:1014A00021F581D846E068E180E645D88FE295E7EE
:1014B0000197F1F700C0000084E228D82091620073
:1014C000309163008217930720F490936300809318
:1014D000620020916200309163007C01E21AF30AFD
:1014E0008FE136D8D82E8EE1A1CF5DD846E068E1F5
:1014F00080E621D8AFE2B5E71197F1F700C0000010
:101500008CE204D8BC0190E080E075D220E030E0AD
:1015100048EC52E4DCD1BACF8183E114F10411F537
:1015200091111CC0B1E0BB1219C068E0C601BDD565
:10153000EFE7F8E321E0E150F0402040E1F700C0A0
:101540000000F894E2E4EF93EFE4EF93EFE4EF931D
:10155000E4E5EF93E0E0FEE00994ABCB63E0C60185
:101560002BD6A7CBEA94EF2809F0A3CB91110DC09D
:101570008FEF8B0D8E3F48F46B2D80E090E034D1DF
:1015800068E0C60192D58B2C94CB63E0C801E8CF0C
:10159000D2019C91882309F495CD8B2D80959823B9
:1015A000F201908348CD970132502132310508F085
:1015B00081CC52E0B5127DCBD80112968C93970165
:1015C0003327C90169E070E0B4D0E1E0F0E0EC0F4E
:1015D000FD1F8E0F9F1FDC018C91803109F054CECE
:1015E000F894C90169E070E0A4D001965F01A80EEB
:1015F000B91E0BD6882309F444CEC5014ED684E427
:101600003DD6E1D58823E9F300D6882309F439CE05
:10161000C50143D68EEB32D6EAD5B82ECF5CDE4F6D
:101620008883C153D140E3D5A82ECE5CDE4F88839A
:10163000C253D140DCD5CD5CDE4F8883C353D1404B
:10164000D6D5CC5CDE4F8883C453D140D0D5CB5C9B
:10165000DE4F8883C553D140CAD5CA5CDE4F88832C
:10166000C653D140C4D5C95CDE4F8883C753D1402F
:10167000BED5C85CDE4F8883C853D140B8D5C75C9F
:10168000DE4F8883C953D140FE01EF5CFE4FAF01AE
:10169000485F5F4F90E06CE8319128E0732F792725
:1016A000969570FD962736952150C1F74E175F0726
:1016B00099F77A2D6B2D891711F06EEF7FEF7894E3
:1016C00090E080E098D120E030E040E85DE321D276
:1016D000F801938384837583668369E0C80130D5FC
:1016E000C70180539241029708F0E3CAF601858151
:1016F000823009F0DECA84E0D80112968C93809182
:10170000640081110DC04FD747E264EF87E713D71C
:1017100040EA65EF87E70FD7D8D681E08093640071
:1017200080E0B0E3EB16B2E1FB0609F081E049D7B7
:1017300084CB0024552704C0080E591F880F991F19
:10174000009729F076956795B8F37105B9F7802D64
:10175000952F0895EE27FF27AA27BB2708C0A20FC1
:10176000B31FE41FF51F220F331F441F551F96950B
:1017700087957795679598F37040A9F7009799F743
:10178000BD01CF010895A1E21A2EAA1BBB1BFD01CA
:101790000DC0AA1FBB1FEE1FFF1FA217B307E40750
:1017A000F50720F0A21BB30BE40BF50B661F771FA8
:1017B000881F991F1A9469F7609570958095909588
:1017C0009B01AC01BD01CF010895692796276927C8
:1017D0007827872778270895E199FECF9FBB8EBB96
:1017E000E09A99278DB30895262FE199FECF1CBA70
:1017F0009FBB8EBB2DBB0FB6F894E29AE19A0FBE49
:10180000019608955058BB27AA270ED048C139D158
:1018100030F03ED120F031F49F3F11F41EF42EC180
:101820000EF4E095E7FB24C1E92F4AD180F3BA1703
:10183000620773078407950718F071F49EF562C17B
:101840000EF4E0950B2EBA2FA02D0B01B9019001DB
:101850000C01CA01A0011124FF27591B99F0593F1F
:1018600050F4503E68F11A16F040A22F232F342F67
:101870004427585FF3CF469537952795A795F040B5
:101880005395C9F77EF41F16BA0B620B730B840BCA
:10189000BAF09150A1F0FF0FBB1F661F771F881F82
:1018A000C2F70EC0BA0F621F731F841F48F48795DA
:1018B00077956795B795F7959E3F08F0B3CF9395C9
:1018C000880F08F09927EE0F9795879508950CD00B
:1018D000E6C0DED040F0D5D030F021F45F3F19F003
:1018E000C7C0511110C1CAC0EBD098F39923C9F3F6
:1018F0005523B1F3951B550BBB27AA276217730716
:10190000840738F09F5F5F4F220F331F441FAA1FC9
:10191000A9F333D00E2E3AF0E0E830D09150504089
:10192000E695001CCAF729D0FE2F27D0660F771F37
:10193000881FBB1F261737074807AB07B0E809F019
:10194000BB0B802DBF01FF2793585F4F2AF09E3FAE
:10195000510568F08DC0D7C05F3FECF3983EDCF3D3
:10196000869577956795B795F7959F5FC9F7880F27
:10197000911D9695879597F90895E1E0660F771F79
:10198000881FBB1F621773078407BA0720F0621B0A
:10199000730B840BBA0BEE1F88F7E095089598D06F
:1019A00088F09F5790F0B92F9927B751A0F0D1F048
:1019B000660F771F881F991F1AF0BA95C9F712C0D2
:1019C000B13081F09FD0B1E008959CC0672F782F8F
:1019D0008827B85F39F0B93FCCF38695779567953E
:1019E000B395D9F73EF490958095709561957F4FAA
:1019F0008F4F9F4F0895E89409C097FB3EF4909550
:101A00008095709561957F4F8F4F9F4F9923A9F0D7
:101A1000F92F96E9BB279395F69587957795679566
:101A2000B795F111F8CFFAF4BB0F11F460FF1BC0AA
:101A30006F5F7F4F8F4F9F4F16C0882311F096E93D
:101A400011C0772321F09EE8872F762F05C06623EB
:101A500071F096E8862F70E060E02AF09A95660FA4
:101A6000771F881FDAF7880F9695879597F908955D
:101A700097F99F6780E870E060E008959FEF80EC41
:101A8000089500240A9416161706180609060895E4
:101A900000240A9412161306140605060895092E4A
:101AA0000394000C11F4882352F0BB0F40F4BF2BB9
:101AB00011F460FF04C06F5F7F4F8F4F9F4F0895F9
:101AC00057FD9058440F551F59F05F3F71F04795EF
:101AD000880F97FB991F61F09F3F79F087950895D4
:101AE000121613061406551FF2CF4695F1DF08C0F3
:101AF000161617061806991FF1CF86957105610510
:101B000008940895E894BB2766277727CB0197F9B7
:101B100008950AD0C4CFB5DF28F0BADF18F09523B6
:101B200009F0A6CFABCFEFCFCBDFA8F39923D9F342
:101B30005523C9F3950F50E0551FAA27EE27FF271D
:101B4000BB2700240894679520F4E20FF31FB41F0D
:101B50000A1E220F331F441FAA1F6695A9F7779507
:101B600030F4F30FB41F0A1E121E08F46395330FEE
:101B7000441FAA1F221F769599F7879520F4B40F6A
:101B80000A1E121E631F440FAA1F221F331F8695B1
:101B9000A9F7862F712D602D11249F5750408AF090
:101BA000E1F088234AF0EE0FFF1FBB1F661F771F6F
:101BB000881F91505040A9F79E3F510570F058CFB3
:101BC000A2CF5F3FECF3983EDCF38695779567955F
:101BD000B795F795E7959F5FC1F7FE2B880F911D8D
:0C1BE0009695879597F90895F894FFCF2B
:041BEC0000010001F3
:00000001FF
