:1000000010C01FC08CC51DC01CC00AC51AC019C0B5
:1000100018C017C016C015C014C013C00BC5302EB1
:10002000303411241FBECFE5D2E0DEBFCDBF20E0CB
:10003000A0E6B0E001C01D92A03BB207E1F791D568
:1000400000CCDECFFB0120813181A9014827CA0104
:1000500028E0AC014170552796958795452B21F0F6
:1000600051E0852750EA9527215099F7FB019183AC
:1000700080830895982F96959575880F8A7A982B86
:10008000892F869586958373990F990F9C7C892B70
:1000900082950895CF92DF92EF92FF920F931F9374
:1000A000CF93DF939C01FF24F39482E0D82E94E554
:1000B000C92EEE24EA94062F020FE90189911091CE
:1000C000A5001F5F1F719091A4001917E1F3D2DF03
:1000D000E12FF0E0EC57FF4F80831093A500809153
:1000E000A70080FD16C08091A70082FDFCCFF89488
:1000F00012BEFCBCF3BED8BE89B7826089BFCDB842
:10010000EFB8EEB8B99A8091A70081608093A700FC
:1001100078949E010C13D1CFDF91CF911F910F9155
:10012000FF90EF90DF90CF900895BF92CF92DF9233
:10013000EF92FF920F931F93CF93DF9300D0CDB731
:10014000DEB78C01D62E8EEFC82EC60E8FEF9FEF36
:100150009A838983B02E7801BE016F5F7F4FF701CC
:1001600081917F016FDF8E2D8B198C15A8F339815A
:100170002A81C8018D0D911DFC01329730830197B2
:10018000FC0120836D2DC80185DF0F900F90DF915A
:10019000CF911F910F91FF90EF90DF90CF90BF9084
:1001A0000895FC01218120582183628365E0BDCF41
:1001B0009FB7F894BC9AC49820E12A95F1F7BC98AF
:1001C000C49888E18A95F1F786B322E92A95F1F778
:1001D00000C09FBF80710895CF93DF93D8E0C0E047
:1001E000C695E6DF8111C068D150D1F78C2FDF9121
:1001F000CF9108959FB7F894BC9AC498EFEBF3E0C1
:100200003197F1F700C00000BC98C498FAEBFA955A
:10021000F1F700C086B3E3E3F3E03197F1F700C0F4
:1002200000009FBF8095807108958FB7F894BC9AA5
:10023000C49890EA9A95F1F7BC98C4989AE19A9577
:10024000F1F700C08FBF08958FB7F894BC9AC49897
:1002500090E19A95F1F7BC98C4989AEA9A95F1F7CB
:1002600000C08FBF0895CF93DF93D82FC8E0D0FF91
:1002700007C0EADFD695C150D1F7DF91CF9108953D
:10028000D4DFF8CF0F931F93CF93DF93EC0185E575
:10029000EADF8E01085F1F4F8991E5DFC017D107A4
:1002A000D9F7DF91CF911F910F9108958F929F926F
:1002B000AF92BF92CF92DF92EF92FF92CF9386B12F
:1002C000877D86B9379A8FE887B98FE99FE00197D4
:1002D000F1F700C00000C4E0C12CD12C7601369AA1
:1002E0003699FECF64B175B190E080E0B3D99B013F
:1002F000AC01C701B601B4D86B017C01C15079F7DC
:1003000020E030E040E85EE331DA4B015C013798F1
:10031000379A8CE187B98FE99FE00197F1F700C028
:100320000000C4E0C12CD12C7601369A3699FECF5C
:1003300064B175B190E080E08DD99B01AC01C7013B
:10034000B6018ED86B017C01C15079F720E030E016
:1003500040E85EE30BDA9B01AC016DEC7CEC8CE8D1
:1003600094E4E2D86B017C01379820E030E040E271
:1003700051E4FCD941D9CDE06E3128F4613108F463
:1003800061E1CFEEC60FC092AC00D092AD00E0921A
:10039000AE00F092AF0023E333E748E853E4C50131
:1003A000B4015DD82AE939E949E85FE3BDD86B01BA
:1003B0007C016C2F70E090E080E04AD920E030E0D2
:1003C00040E551E4B1D89B01AC01C701B60148D862
:1003D0006093A8007093A9008093AA009093AB004B
:1003E000CF91FF90EF90DF90CF90BF90AF909F9014
:1003F0008F90089571E0BA9ABC9800000000000048
:100400000AD3BA9808D3A894000000000000B29B59
:10041000FDD2B2F08894B4990894771F60F7BA9A25
:10042000803011F0BC9801C0BC9A000000000000B0
:10043000F2D2BA98A89400000000B29BE7D2EBD2A7
:1004400000000000BA9A872F9927089580E2089546
:100450000894881F01C0880FB9F0BA9A0000000004
:10046000000018F40000BC9802C0BC9A00C0D3D2AF
:10047000BA98A894000000000000B29BC7D212F402
:10048000882712C0C8D2E7CFBA9A00000000BC98F3
:10049000C2D299278827BA98A8940000B29BB6D2F6
:1004A0007AF3B49B81E0B7D200000000BA9A0895B5
:1004B00081E00895BA9ABC9AAED2BA98ACD2B29BF7
:1004C000A5D2BC98A8D278940895F894BA9AA3D2E9
:1004D000BC98A1D2BA989FD2B29B98D2BC9A9BD218
:1004E000B7CF81E00895F894B29B90D2BC9A93D292
:1004F000AFCF81E00895BC98BA98C498C298882775
:100500009927B49B0895B29B089581E0089581E0F6
:1005100008952F923F924F925F926F927F928F92A7
:100520009F92AF92BF92CF92DF92EF92FF920F9382
:100530001F93CF93DF93CDB7DEB764970FB6F894D0
:10054000DEBF0FBECDBFA82ED6DF8EEECCDF8EE88D
:100550007FDF8FEEBADF80E04DDF898380E04ADF06
:100560008A8380E047DF8B8380E044DF8C8380E0F8
:1005700041DF182F80E03EDF982E80E03BDF8D8347
:1005800080E038DF8E8380E035DF8F8380E032DFEC
:10059000888780E02FDF898780E02CDF8A8780E0F2
:1005A00029DF8B8780E026DF8C8780E023DF8D8743
:1005B00080E020DF8E8780E01DDF8F8781E01ADFFB
:1005C000888B78DF8EEE8FDF87EF42DF8FEE7DDF67
:1005D00080E010DF082F80E00DDF898B80E00ADFEC
:1005E0008A8B80E007DF90E0B0E0A0E02C013D01C5
:1005F0008CE0440C551C661C771C8A95D1F780E072
:10060000F9DE90E0B0E0A0E06C017D0194E0CC0C5C
:10061000DD1CEE1CFF1C9A95D1F7C428D528E628CE
:10062000F72881E0E7DE82958F70C82A43DF8EEEDF
:100630005ADF88E80DDF8FEE48DF80E0DBDE282F11
:1006400030E03C8B2B8B80E0D5DE4B895C89582BCE
:100650005C8B4B8B80E0CEDEB82E80E0CBDE282E8C
:1006600080E0C8DE882E81E0C5DE382E23DF8B894E
:100670009C89AC0170E060E02601370124E07594AC
:100680006794579447942A95D1F7441A550A660AF5
:10069000770AD701C60133E0B595A7959795879559
:1006A0003A95D1F7440F551F661F771F6C017D01E6
:1006B000C41AD50AE60AF70AC701B601322D2B2D56
:1006C000032E000C440B550B72D66B017C01FBE032
:1006D000F594E794D794C794FA95D1F7A3019201C2
:1006E000C301B20164D6ACE095958795779567957F
:1006F000AA95D1F7332D282D032E000C440B550B52
:1007000056D6BEE09595879577956795BA95D1F7BA
:100710006C0D7D1D8E1D9F1DDD24D394AD1469F1DC
:1007200025E030E040E050E042D64B015C0120E89B
:10073000820E911CA11CB11C892C9A2CAB2CBB24C1
:10074000A7FCBA94C501B40164960FB6F894DEBF55
:100750000FBECDBFDF91CF911F910F91FF90EF9012
:10076000DF90CF90BF90AF909F908F907F906F90D1
:100770005F904F903F902F9008956B017C01F5940E
:10078000E794D794C7943AEFD31AE108F108C70168
:10079000B60122E095958795779567952A95D1F7CB
:1007A0009B01AC0104D62B013C01792D612F072E52
:1007B000000C880B990BA3019201EDE0559547952C
:1007C00037952795EA95D1F7F2D54B015C01F3E017
:1007D000B594A79497948794FA95D1F74C815B814F
:1007E000742F652F072E000C880B990BA70196011B
:1007F000DED59595879577956795680D791D8A1D46
:100800009B1DB2E19595879577956795BA95D1F738
:1008100070588F4F9F4FEA81F9813E2F2F2F50E064
:1008200040E0C5D54B015C011FE0B594A7949794B7
:1008300087941A95D1F781149104A104B10409F4A5
:1008400081CF2A853985722F632F072E000C880BE4
:10085000990BA3019201EBE05595479537952795A4
:10086000EA95D1F7A4D52B013C0148855F81742F0F
:10087000652F072E000C880B990BA701960197D5C1
:10088000AB01BC01440F551F661F771F440D551D5A
:10089000661D771DA2E07595679557954795AA95B2
:1008A000D1F710E030E020E0BCE0000F111F221F64
:1008B000331FBA95D1F7CE80DD809C2D8D2D092E6A
:1008C000000CAA0BBB0BDC0199278827840F951F0E
:1008D000A61FB71FBC01CD01FCE0959587957795C4
:1008E0006795FA95D1F7E9884E2C512C712C612C23
:1008F000A4E0440C551C661C771CAA95D1F74A89C4
:1009000042954F70442A402A512A622A732A640D64
:10091000751D861D971D2BEC33EF4FEF5FEF47D50D
:10092000805B9C4397FD68C0660F771F881F991FE7
:10093000A501940155D529013A01C301B20123E073
:1009400096958795779567952A95D1F7F888EF84DE
:1009500067010D2C000CEE08FF089B01AC0127D5A8
:100960009B01AC016DE056954795379527956A95A3
:10097000D1F7C701B6011BD56B017C017CE0F59472
:10098000E794D794C7947A95D1F72E853D85722F39
:10099000632F072E000C880B990BA3019201E2E054
:1009A0005695479537952795EA95D1F700D54B0190
:1009B0005C01FDE0B594A79497948794FA95D1F7DC
:1009C0008C0C9D1CAE1CBF1CEC84FB84DE2CCF2C3D
:1009D0000D2C000CEE08FF088C0C9D1CAE1CBF1CDF
:1009E000A4E0B594A79497948794AA95D1F7840C22
:1009F000951CA61CB71CA6CEA5019401F1D4290113
:100A00003A01440C551C661C771C97CFB29BFECF55
:100A1000A8940895089598E09A95F1F70895089597
:100A20008F938FB78F9382B78E5C82BF8F918FBF6A
:100A30008F9118951F921FB61F9211248F939F9329
:100A4000EF93FF938091A70080FF4FC0C39A8091DE
:100A5000A70081FF16C08091A7008D7F8093A7001B
:100A60008BEF8EB98091A600880F880F880F876062
:100A70008FB9FF91EF919F918F911F901FBE1F9093
:100A800018959091A5008091A4009817C9F08091C5
:100A9000A70082608093A700E091A400EF5FEF7150
:100AA000E093A400F0E0EC57FF4F80818093A60014
:100AB0008BEF8EB98091A600869586958068D8CFF9
:100AC000C3988091A7008E7F8093A70013BE88B340
:100AD000836088BB87B38C7F87BB1DB880E28ABFE9
:100AE0008BB780628BBFA89AC4CFC3988091A700B0
:100AF0008B7F8093A700E0918300EF5FEF7180917F
:100B000082008E1304C08091A7008860DDCFE0933F
:100B100083008FB1F0E0EE59FF4F8083D7CF8F93E2
:100B20008FB78F93B09919C081E182BF82B7885681
:100B300082BF81E08CBD83BF82E088BF89B78260BD
:100B400089BF84E58DB987EF8EB98BB78F7D8BBF59
:100B50008091A70084608093A7008F918FBF8F91B1
:100B60001895CDB7DEB7CA54D1400FB6F894DEBFA2
:100B70000FBECDBFF89481E090E05BD4482E96DBA9
:100B8000BA98BC98C4988FEB93E00197F1F700C036
:100B9000000010928200109283001092A400109224
:100BA000A500BB9AC39888B3836088BB87B38C7F4A
:100BB00087BB1DB880E28ABF8BB780628BBFA89AC3
:100BC00078948E010F5D1E4FD8011B96C75BDE4FD8
:100BD000B983A883C954D140FE013296CE5BDE4F63
:100BE000F983E883C254D140A89590918300809105
:100BF00082009817C9F38FE097E20197F1F700C0E0
:100C000000009091830080918200981769F36E0133
:100C100096ECC91A9EEFD90AC6010796F60156014D
:100C200021812193E817F907D9F7909183008091EA
:100C300082009817D1F3E0918200EF5FEF71E093AB
:100C40008200F0E0EE59FF4F808114DAD60117964A
:100C50008C9317979C919411D4CF11969C912DEF62
:100C6000290F223010F0963061F6F6018680982E1A
:100C7000EFEFFFEFD801ED93FC937601F6E0EF0E76
:100C8000F11CB801D6018D916D01DCD9EC14FD0485
:100C9000C1F7F801808191818816990609F0B1CFDA
:100CA000D5011296ED90FC901397FE24EF24FE24BC
:100CB0001596DC90159714969C9114974082119686
:100CC0008C91843009F488C0863009F499C283304D
:100CD00009F097CF8183E114F10449F4B1E0DB120C
:100CE00090CF82E082831382148267E024C0E1E027
:100CF000EE16F10419F5F2E0DF1283CF84E0D8019B
:100D000012968C931297EEE1F0E0E4911396EC9337
:100D10001397EFE1F0E0E4911496EC931497E0E27E
:100D2000F0E0E4911596EC931597E1E2F0E0E491A0
:100D30001696EC9369E0C801F8D963CFB2E0EB16E0
:100D4000F10479F4E1E0DE125CCF82E0D801129682
:100D50008C9381E090E06DD3482EF8011382848358
:100D6000C4CFF3E0EF16F104B9F422E0D21249CF78
:100D700084E0D80112968C9399DA6091AC0070915E
:100D8000AD008091AE009091AF004CD3F801638329
:100D9000748385839683CECFF4E0EF16F10409F0D7
:100DA00030CFD50115968C91823009F02ACF84E09E
:100DB000F80182837BDA6091A8007091A90080918C
:100DC000AA009091AB002ED3D80113966D937D931A
:100DD0008D939C931697AECF8183E114F10409F0B3
:100DE00040C0F1E0DF120DCF82E0D80112968C9363
:100DF000129713961C92139780E214968C9367E0D7
:100E0000C80193D9C70180539241029708F0F9CEE7
:100E1000F5018581823009F0F4CE84E0D801129684
:100E20008C9380916000811113C065DB8EEE5BDBDB
:100E300084EF0EDB87E20CDB3DDB8EEE54DB85EFCF
:100E400007DB80EA05DB36DB35DB81E08093600081
:100E500080E0B0E3EB16B2E1FB0609F081E059DB7C
:100E600094CFB1E0EB16F10409F0F8C0E1E0DE1236
:100E7000C8CE82E0D80112968C93129713961C92DA
:100E8000F894FE0131964F01108211821282138272
:100E9000148215821682178210863996E017F107A0
:100EA00099F7A8D9811110C0789480E0D4019C9161
:100EB000903109F48F5FB9E08B0E911C081519056C
:100EC000A9F7F80184839BCFCE5BDE4FE881C25443
:100ED000D140CD5BDE4FF881C354D140CB5BDE4FB8
:100EE0001882C554D1402E2ECC5BDE4FF883C454FB
:100EF000D140312C88E0A22DCC5BDE4FB881C454A8
:100F0000D14001900D928A95E1F774D980EFABD969
:100F10005524539477247394C22CCC5BDE4FD88035
:100F2000C454D140612C44D9C85BDE4F8883C85477
:100F3000D1403ED9C85BDE4F3881C854D1403323FD
:100F400009F4ABC1811169C0D6018C9187298C93BA
:100F5000D6018C91872109F45EC076D95394770C21
:100F600029F4BFEFCB1ADB0A77247394E1E45E1215
:100F7000DACF832D90E069E070E008D2880D991DEA
:100F8000E0E1DC01EC933394832D90E069E070E0C4
:100F9000FDD1880D991D0196CB5BDE4F6882C5544B
:100FA000D140E22DCC5BDE4FF881C454D1406110BA
:100FB0000EC09E01275F3F4F90E0391231C07894F8
:100FC000662009F472CF61E1C801EBD81BCF282E4F
:100FD000CC5BDE4F9883C454D1408CCFCB5BDE4FCB
:100FE000F881C554D140F51104C09729D6019C93CE
:100FF000AFCFCB5BDE4FB881C554D140B51538F4C7
:10100000872D80959823F6019083652CA1CF972199
:1010100009F09ECFFACF09D9A1CF66246A94A9CF4F
:10102000F901379780E0519148E0652F6827869550
:1010300060FF02C06CE8862756954150B1F72E1725
:101040003F0789F7275F3F4FF901399740814813E0
:1010500002C09F5FB2CF66246A94B1CF97013A95E0
:101060002132310508F024C1F4E0DF12CACD88E056
:10107000D80112968C93FF24C70169E070E086D1F5
:10108000E1E0F0E0EC0FFD1F8E0F9F1FDC018C9163
:10109000803109F0B2C0C70169E070E077D10196F4
:1010A000E1E0F0E0EC0FFD1FE80FF91FD801139607
:1010B00081918D93C75BDE4F28813981C954D1401E
:1010C0002A173B07A9F76DE036CE32E0D31299CD4F
:1010D000D80112968C93FF24C70169E070E056D1C5
:1010E000E1E0F0E0EC0FFD1F8E0F9F1FDC018C9103
:1010F000803109F082C0F894C70169E070E046D100
:1011000001967F01E80EF91E75D8882309F472C094
:10111000C701B8D884E4A7D84BD88823E9F36AD8A4
:10112000882309F467C0C701ADD88EEB9CD854D88A
:10113000F82ECF5CDE4F8883C153D1404DD8E82EC6
:10114000CE5CDE4F8883C253D14046D8CD5CDE4FA3
:101150008883C353D14040D8CC5CDE4F8883C453CE
:10116000D1403AD8CB5CDE4F8883C553D14034D8C8
:10117000CA5CDE4F8883C653D1402ED8C95CDE4F8F
:101180008883C753D14028D8C85CDE4F8883C853B2
:10119000D14022D8C75CDE4F8883C953D140FE01BD
:1011A000EF5CFE4FAF01485F5F4F90E0319128E068
:1011B000632F6927969560FF02C0BCE89B27369590
:1011C0002150B1F74E175F0789F77E2D6F2D8917D4
:1011D00011F06EEF7FEF789490E080E039D220E05C
:1011E00030E040E85DE3C2D2F801938384837583E5
:1011F0006683A0CD6DEF7FEFEECF62E0C80124C023
:101200008183E114F10411F591111CC0B1E0DB12EE
:1012100019C068E0C5013ED7EFE7F8E321E0E150EF
:10122000F0402040E1F700C00000F894E2E4EF93C2
:10123000EFE4EF93EFE4EF93E4E5EF93E0E0FEE01B
:101240000994DFCC63E0C501ACD7DBCC31E0E31619
:10125000F10479F491111FC08FEF8D0D8E3FD8F4FA
:101260006D2D81E090E0EDD068E0C50113D74D2CE5
:10127000C8CC61E1E616F10409F0C3CC91110BC0B2
:101280008FEFD81641F06D2D80E090E0DAD068E065
:10129000C50100D7B6CC63E0B1CFD6019C918823BD
:1012A00009F49CCE872D80959823F601908350CE2B
:1012B000970132502132310508F407CFF0E2EF16E2
:1012C000F2E1FF0609F09ECD22E0D2129ACCD801BD
:1012D00012968C9380916100811113C0F89486E47A
:1012E00002D981E1B5D8E6D87894BFE7E0E2F5E02D
:1012F000B150E040F040E1F700C0000081E0809391
:101300006100F894F8D887E4EED880E073D8282FED
:101310002695C95BDE4F2883C754D140879588271F
:101320008795CA5BDE4F8883C654D14081E062D87E
:10133000D82EE82EE694CA5BDE4F88819981C65488
:10134000D1408E0D911D7C01B5D87894B70190E005
:1013500080E07ED120E030E0A901D0FE04C020E092
:1013600030E040E05FE37CD02AE939E949E95FE316
:10137000DBD0D80113969C93139714968C931497F3
:1013800015967C93159716966C93D4CC002455270C
:1013900004C0080E591F880F991F009729F07695F1
:1013A0006795B8F37105B9F7802D952F0895EE274D
:1013B000FF27AA27BB2708C0A20FB31FE41FF51FF2
:1013C000220F331F441F551F969587957795679574
:1013D00098F37040A9F7009799F7BD01CF010895E0
:1013E000A1E21A2EAA1BBB1BFD010DC0AA1FBB1F29
:1013F000EE1FFF1FA217B307E407F50720F0A21B9B
:10140000B30BE40BF50B661F771F881F991F1A9407
:1014100069F760957095809590959B01AC01BD0131
:10142000CF01089569279627692778278727782786
:101430000895E199FECF9FBB8EBBE09A99278DB3AB
:101440000895262FE199FECF1CBA9FBB8EBB2DBB02
:101450000FB6F894E29AE19A0FBE0196089550589B
:10146000BB27AA270ED048C139D130F03ED120F099
:1014700031F49F3F11F41EF42EC10EF4E095E7FB0A
:1014800024C1E92F4AD180F3BA1762077307840792
:10149000950718F071F49EF562C10EF4E0950B2EDD
:1014A000BA2FA02D0B01B90190010C01CA01A001B6
:1014B0001124FF27591B99F0593F50F4503E68F111
:1014C0001A16F040A22F232F342F4427585FF3CF52
:1014D000469537952795A795F0405395C9F77EF423
:1014E0001F16BA0B620B730B840BBAF09150A1F06C
:1014F000FF0FBB1F661F771F881FC2F70EC0BA0FF2
:10150000621F731F841F48F4879577956795B79579
:10151000F7959E3F08F0B3CF9395880F08F0992771
:10152000EE0F9795879508950CD0E6C0DED040F079
:10153000D5D030F021F45F3F19F0C7C0511110C170
:10154000CAC0EBD098F39923C9F35523B1F3951B87
:10155000550BBB27AA2762177307840738F09F5FD4
:101560005F4F220F331F441FAA1FA9F333D00E2E43
:101570003AF0E0E830D091505040E695001CCAF7B0
:1015800029D0FE2F27D0660F771F881FBB1F261775
:1015900037074807AB07B0E809F0BB0B802DBF0148
:1015A000FF2793585F4F2AF09E3F510568F08DC08A
:1015B000D7C05F3FECF3983EDCF38695779567954F
:1015C000B795F7959F5FC9F7880F911D96958795F9
:1015D00097F90895E1E0660F771F881FBB1F621718
:1015E00073078407BA0720F0621B730B840BBA0BD6
:1015F000EE1F88F7E095089598D088F09F5790F0F7
:10160000B92F9927B751A0F0D1F0660F771F881F27
:10161000991F1AF0BA95C9F712C0B13081F09FD066
:10162000B1E008959CC0672F782F8827B85F39F004
:10163000B93FCCF3869577956795B395D9F73EF486
:1016400090958095709561957F4F8F4F9F4F08952E
:10165000E89409C097FB3EF490958095709561954C
:101660007F4F8F4F9F4F9923A9F0F92F96E9BB2702
:101670009395F695879577956795B795F111F8CF7E
:10168000FAF4BB0F11F460FF1BC06F5F7F4F8F4FE9
:101690009F4F16C0882311F096E911C0772321F0DF
:1016A0009EE8872F762F05C0662371F096E8862F77
:1016B00070E060E02AF09A95660F771F881FDAF7CE
:1016C000880F9695879597F9089597F99F6780E811
:1016D00070E060E008959FEF80EC089500240A9484
:1016E0001616170618060906089500240A941216FD
:1016F0001306140605060895092E0394000C11F430
:10170000882352F0BB0F40F4BF2B11F460FF04C0DC
:101710006F5F7F4F8F4F9F4F089557FD9058440F35
:10172000551F59F05F3F71F04795880F97FB991F40
:1017300061F09F3F79F087950895121613061406FD
:10174000551FF2CF4695F1DF08C01616170618068A
:10175000991FF1CF86957105610508940895E89465
:10176000BB2766277727CB0197F908950AD0C4CF06
:10177000B5DF28F0BADF18F0952309F0A6CFABCF7C
:10178000EFCFCBDFA8F39923D9F35523C9F3950FF6
:1017900050E0551FAA27EE27FF27BB2700240894F7
:1017A000679520F4E20FF31FB41F0A1E220F331FA8
:1017B000441FAA1F6695A9F7779530F4F30FB41F5D
:1017C0000A1E121E08F46395330F441FAA1F221F1E
:1017D000769599F7879520F4B40F0A1E121E631FA1
:1017E000440FAA1F221F331F8695A9F7862F712D3C
:1017F000602D11249F5750408AF0E1F088234AF071
:10180000EE0FFF1FBB1F661F771F881F91505040B0
:10181000A9F79E3F510570F058CFA2CF5F3FECF380
:10182000983EDCF3869577956795B795F795E7959C
:101830009F5FC1F7FE2B880F911D9695879597F9AD
:061840000895F894FFCFAB
:00000001FF
