:1000000010C01FC086C31DC01CC004C31AC019C0C5
:1000100018C017C016C015C014C013C005C3302EB9
:10002000303511241FBECFE5D2E0DEBFCDBF20E0CA
:10003000A0E6B0E001C01D92AF3AB207E1F78BD362
:10004000A0CADECFFB0120813181A9014827CA0166
:1000500028E0AC014170552796958795452B21F0F6
:1000600051E0852750EA9527215099F7FB019183AC
:1000700080830895982F96959575880F8A7A982B86
:10008000892F869586958373990F990F9C7C892B70
:1000900082950895CF92DF92EF92FF920F931F9374
:1000A000CF93DF939C01FF24F39482E0D82E94E554
:1000B000C92EEE24EA94062F020FE90189911091CE
:1000C000A4001F5F1F719091A3001917E1F3D2DF05
:1000D000E12FF0E0ED57FF4F80831093A400809153
:1000E000A60080FD16C08091A60082FDFCCFF8948A
:1000F00012BEFCBCF3BED8BE89B7826089BFCDB842
:10010000EFB8EEB8B99A8091A60081608093A600FE
:1001100078949E010C13D1CFDF91CF911F910F9155
:10012000FF90EF90DF90CF900895BF92CF92DF9233
:10013000EF92FF920F931F93CF93DF9300D0CDB731
:10014000DEB78C01D62E8EEFC82EC60E8FEF9FEF36
:100150009A838983B02E7801BE016F5F7F4FF701CC
:1001600081917F016FDF8E2D8B198C15A8F339815A
:100170002A81C8018D0D911DFC01329730830197B2
:10018000FC0120836D2DC80185DF0F900F90DF915A
:10019000CF911F910F91FF90EF90DF90CF90BF9084
:1001A0000895FC01218120582183628365E0BDCF41
:1001B0009FB7F894BC9AC49820E12A95F1F7BC98AF
:1001C000C49888E18A95F1F786B322E92A95F1F778
:1001D00000C09FBF80710895CF93DF93D8E0C0E047
:1001E000C695E6DF8111C068D150D1F78C2FDF9121
:1001F000CF9108959FB7F894BC9AC498EFEBF3E0C1
:100200003197F1F700C00000BC98C498FAEBFA955A
:10021000F1F700C086B3E3E3F3E03197F1F700C0F4
:1002200000009FBF8095807108958FB7F894BC9AA5
:10023000C49890EA9A95F1F7BC98C4989AE19A9577
:10024000F1F700C08FBF08958FB7F894BC9AC49897
:1002500090E19A95F1F7BC98C4989AEA9A95F1F7CB
:1002600000C08FBF0895CF93DF93D82FC8E0D0FF91
:1002700007C0EADFD695C150D1F7DF91CF9108953D
:10028000D4DFF8CF0F931F93CF93DF93EC0185E575
:10029000EADF8E01085F1F4F8991E5DFC017D107A4
:1002A000D9F7DF91CF911F910F9108958F929F926F
:1002B000AF92BF92CF92DF92EF92FF92CF9386B12F
:1002C000877D86B9379A8FE887B98FE99FE00197D4
:1002D000F1F700C00000C4E0C12CD12C7601369AA1
:1002E0003699FECF64B175B190E080E053D89B01A0
:1002F000AC01C701B60154D76B017C01C15079F73D
:1003000020E030E040E85EE3D1D84B015C01379853
:10031000379A8CE187B98FE99FE00197F1F700C028
:100320000000C4E0C12CD12C7601369A3699FECF5C
:1003300064B175B190E080E02DD89B01AC01C7019C
:10034000B6012ED76B017C01C15079F720E030E077
:1003500040E85EE3ABD89B01AC016DEC7CEC8CE833
:1003600094E482D76B017C01379820E030E040E2D2
:1003700051E49CD8E1D7CDE06E3128F4613108F426
:1003800061E1CFEEC60FC092AB00D092AC00E0921C
:10039000AD00F092AE0023E333E748E853E4C50133
:1003A000B401FDD62AE939E949E85FE35DD76B017D
:1003B0007C016C2F70E090E080E0EAD720E030E034
:1003C00040E551E451D79B01AC01C701B601E8D625
:1003D0006093A7007093A8008093A9009093AA004F
:1003E000CF91FF90EF90DF90CF90BF90AF909F9014
:1003F0008F90089571E0BA9ABC9800000000000048
:1004000004D1BA9802D1A894000000000000B29B69
:10041000F7D0B2F08894B4990894771F60F7BA9A2D
:10042000803011F0BC9801C0BC9A000000000000B0
:10043000ECD0BA98A89400000000B29BE1D0E5D0BF
:1004400000000000BA9A872F9927089580E2089546
:100450000894881F01C0880FB9F0BA9A0000000004
:10046000000018F40000BC9802C0BC9A00C0CDD0B7
:10047000BA98A894000000000000B29BC1D012F40A
:10048000882712C0C2D0E7CFBA9A00000000BC98FB
:10049000BCD099278827BA98A8940000B29BB0D006
:1004A0007AF3B49B81E0B1D000000000BA9A0895BD
:1004B00081E00895BA9ABC9AA8D0BA98A6D0B29B07
:1004C0009FD0BC98A2D078940895F894BA9A9DD001
:1004D000BC989BD0BA9899D0B29B92D0BC9A95D038
:1004E000B7CF81E00895F894B29B8AD0BC9A8DD0A2
:1004F000AFCF81E00895BC98BA98C498C298882775
:100500009927B49B0895B29B089581E0089581E0F6
:100510000895CF92DF92FF920F931F93CF93DF93B3
:1005200000D000D000D0CDB7DEB7F82EE4DF88E8E9
:10053000DADF84E28DDF80E08BDF8FE39CE90197D7
:10054000F1F700C0000089E8C0DF8E010F5F1F4F88
:100550006E0196E0C90ED11C80E04CDFF80181935A
:100560008F01EC15FD05C1F781E044DFA3DFF1E069
:10057000FF1679F16981862F90E0982F88276A818C
:10058000680F792F711D90E080E002D720E03FEFE7
:100590004FE757E469D620E030E04FE253E486D7D6
:1005A00020E030E044E352E4FAD520E030E048ECCB
:1005B00052E47CD7C1D626960FB6F894DEBF0FBEA4
:1005C000CDBFDF91CF911F910F91FF90DF90CF9022
:1005D00008956C81862F90E0982F88276D81680F91
:1005E000792F711D90E080E0D3D620E03FEF4FE7F8
:1005F00057E43AD620E030E048EC52E457D7D5CF64
:10060000B29BFECFA8940895089598E09A95F1F7CB
:10061000089508958F938FB78F9382B78E5C82BFB2
:100620008F918FBF8F9118951F921FB61F92112423
:100630008F939F93EF93FF938091A60080FF4FC00D
:10064000C39A8091A60081FF16C08091A6008D7F7D
:100650008093A6008BEF8EB98091A500880F880F3C
:10066000880F87608FB9FF91EF919F918F911F90B5
:100670001FBE1F9018959091A4008091A300981719
:10068000C9F08091A60082608093A600E091A3004B
:10069000EF5FEF71E093A300F0E0ED57FF4F808133
:1006A0008093A5008BEF8EB98091A50086958695E5
:1006B0008068D8CFC3988091A6008E7F8093A600D3
:1006C00013BE88B3836088BB87B38C7F87BB1DB89C
:1006D00080E28ABF8BB780628BBFA89AC4CFC398D1
:1006E0008091A6008B7F8093A600E0918200EF5F4F
:1006F000EF71809181008E1304C08091A600886004
:10070000DDCFE09382008FB1F0E0EF59FF4F80839F
:10071000D7CF8F938FB78F93B09919C081E182BFE4
:1007200082B7885682BF81E08CBD83BF82E088BFDC
:1007300089B7826089BF84E58DB987EF8EB98BB7A1
:100740008F7D8BBF8091A60084608093A6008F91DF
:100750008FBF8F911895CDB7DEB7C255D1400FB678
:10076000F894DEBF0FBECDBFF89480E090E001D5D5
:10077000782E81E090E0FDD4682F880F770B880BEE
:10078000990B08D620E030E040E251E46DD5CA5B19
:10079000DE4F6883C654D140C95BDE4F7883C754AF
:1007A000D140C85BDE4F8883C854D140C75BDE4F61
:1007B0009883C954D14082E090E0DBD4682F880F41
:1007C000770B880B990BE6D520E030E040E251E44E
:1007D0004BD5C65BDE4F6883CA54D140C55BDE4F44
:1007E0007883CB54D140C45BDE4F8883CC54D14056
:1007F000C35BDE4F9883CD54D14058DDBA98BC9886
:10080000C4988FEB93E00197F1F700C000001092BD
:100810008100109282001092A3001092A400BB9A53
:10082000C39888B3836088BB87B38C7F87BB1DB8B0
:1008300080E28ABF8BB780628BBFA89A78948E01C2
:100840000F5D1E4FD8011B96CF5ADE4FB983A88388
:10085000C155D140FE013296CE5BDE4FF983E8836D
:10086000C254D140A8959091820080918100981740
:10087000C9F38FE097E20197F1F700C00000909173
:10088000820080918100981769F37E0196ECE91A45
:100890009EEFF90AC7010796F701670121812193AD
:1008A0008E179F07D9F79091820080918100981749
:1008B000D1F3E0918100EF5FEF71E0938100F0E010
:1008C000EF59FF4F8081D6DBD70117968C9317978E
:1008D0009C919711D4CF11969C912DEF290F223026
:1008E00010F0963061F6F701A680B82EEFEFFFEF1B
:1008F000D801ED93FC934701F6E08F0E911CB801EF
:10090000D7018D917D019EDB8E149F04C1F7F80104
:1009100080819181A816B90609F0B1CFD60112964F
:10092000ED90FC901397FE24EF24FE241596BC90C6
:10093000159714969C911497708211968C9184301F
:1009400009F401C1863009F4FDC2833009F097CF64
:100950008183E114F10409F040C0B1E0BB128FCFF4
:1009600082E082831382148267E0C801DEDBB2E199
:10097000EB16F10409F06CC0F6018581823009F0B4
:100980007ECF84E0D80112968C9381E090E0F1D381
:10099000682F880F770B880B990BFCD420E030E090
:1009A00040E251E461D4CA5BDE4F6883C654D14053
:1009B000C95BDE4F7883C754D140C85BDE4F888364
:1009C000C854D140C75BDE4F9883C954D140F80169
:1009D000938384837583668392C0E1E0EE16F1040D
:1009E00009F5F2E0BF124BCF84E0D80112968C9348
:1009F0001297EEE1F0E0E4911396EC931397EFE198
:100A0000F0E0E4911496EC931497E0E2F0E0E491C6
:100A10001596EC931597E1E2F0E0E4911696EC93CD
:100A200069E0A3CFB2E0EB16F10409F04EC0E1E0BB
:100A3000BE1225CF82E0D80112968C9380E090E020
:100A400098D3782EF8011382848367E0C8016DDBA8
:100A500032E2E316F10409F012CFD60115968C911B
:100A6000823009F00CCF84E0F801828382E090E0CC
:100A700080D3682F880F770B880B990B8BD420E0DD
:100A800030E040E251E4F0D3C65BDE4F6883CA54E5
:100A9000D140C55BDE4F7883CB54D140C45BDE4F81
:100AA0008883CC54D140C35BDE4F9883CD54D14072
:100AB000D80113969C93139714968C9314971596BC
:100AC0007C93159716966C931AC0F3E0EF16F10419
:100AD000D1F422E0B212D3CE84E0D80112968C93E6
:100AE000E5DB6091AB007091AC008091AD0090911E
:100AF000AE0038D3F801638374838583968369E0FD
:100B0000C80113DBBCCEF4E0EF16F10409F02FCFDF
:100B1000D60115968C91823009F0B1CE84E0F801AF
:100B20008283C4DB6091A7007091A8008091A90026
:100B30009091AA0017D3D80113966D937D938D934E
:100B40009C931697DCCFD8018183E114F10409F05E
:100B500070C0B1E0BB1293CE82E08283138280E248
:100B6000848367E0C801E1DAC701805592410297AA
:100B700008F495C1B0E2EB16B2E1FB0609F07FCEB6
:100B8000F6018581823009F07ACE84E0D801129690
:100B90008C9380916000811113C0F89486E4A3DCEB
:100BA00081E156DC87DC7894BFE7E0E2F5E0B15004
:100BB000E040F040E1F700C0000081E08093600079
:100BC000F89499DC87E48FDC80E014DC282F2695EC
:100BD000C15BDE4F2883CF54D14087958827879506
:100BE000C25BDE4F8883CE54D14081E003DCD82E37
:100BF000E82EE694C25BDE4F88819981CE54D140C5
:100C00008E0D911D7C0156DC7894B70190E080E058
:100C1000BFD320E030E0A901D0FE04C020E030E0E6
:100C200040E05FE3BDD22AE939E949E95FE31CD33B
:100C300061C1F1E0EF16F10409F0F6C021E0B21253
:100C40001ECE82E012968C93129713961C92F89403
:100C5000FE0131964F01108211821282138214829A
:100C6000158216821782108639960E171F0799F77C
:100C7000C1DA81110FC0789480E0D4019C91903149
:100C800009F48F5FB9E08B0E911C08151905A9F7BF
:100C9000F80166CFCE5BDE4FE881C254D140CD5B18
:100CA000DE4FF881C354D140CB5BDE4F1882C55470
:100CB000D1402E2ECC5BDE4FF883C454D140612C42
:100CC00088E0A22DCC5BDE4FB881C454D1400190A6
:100CD0000D928A95E1F78EDA80EFC5DA33243394EA
:100CE000BB24B394422CCC5BDE4F5880C454D1401B
:100CF000A12C5EDAC05BDE4F8883C055D14058DA44
:100D0000C05BDE4F3881C055D140332309F469C13F
:100D1000811169C0D2018C918B298C93D2018C9165
:100D20008B2109F45EC090DA3394BB0C29F4BFEF39
:100D30004B1A5B0ABB24B394E1E43E12DACF862D52
:100D400090E069E070E0FDD1880D991DE0E1DC01E3
:100D5000EC936394862D90E069E070E0F2D1880D09
:100D6000991D0196CB5BDE4FA882C554D140E22D80
:100D7000CC5BDE4FF881C454D140A1100EC09E015F
:100D8000275F3F4F90E0691231C07894AA2009F4A0
:100D900073CF61E1C80105DAE7CE282ECC5BDE4FC8
:100DA0009883C454D1408CCFCB5BDE4FF881C554BF
:100DB000D140F31104C09B29D2019C93AFCFCB5BF0
:100DC000DE4FB881C554D140B31538F48B2D8095D2
:100DD0009823F2019083A32CA1CF9B2109F09ECFF1
:100DE000FACF23DAA1CFAA24AA94A9CFF901379781
:100DF00080E0519148E0652F6827869560FF02C02A
:100E00006CE8862756954150B1F72E173F0789F7B2
:100E1000275F3F4FF90139974081481302C09F5F18
:100E2000B2CFAA24AA94B1CF97013A9521323105C5
:100E300008F0E2C0F4E0BF1222CD88E012968C9355
:100E4000FF24C70169E070E07CD1E1E0F0E0EC0F45
:100E5000FD1F8E0F9F1FDC018C918031E9F4C701CB
:100E600069E070E06ED10196E1E0F0E0EC0FFD1F6B
:100E7000E80FF91FD801139681918D93CF5ADE4F59
:100E800028813981C155D140A217B307A9F76DE078
:100E900037CE6DEF7FEF3CC162E0C80177C0D6016D
:100EA00015968C91823009F0EACC84E0F8018283B7
:100EB000F0E5EF16F2E1FF0641F580E02ADB6AD2A9
:100EC00020E030E048EC52E4CFD1CA5BDE4F28810D
:100ED000C654D140C95BDE4F3881C754D140C85B8E
:100EE000DE4F4881C854D140C75BDE4F5881C9549A
:100EF000D14056D1D80113969C93139714968C9396
:100F0000149715967C931597DDCD81E002DB42D2D4
:100F100020E030E048EC52E4A7D1C65BDE4F2881E8
:100F2000CA54D140C55BDE4F3881CB54D140C45B3D
:100F3000DE4F4881CC54D140C35BDE4F5881CD5445
:100F4000D140D7CF8183E114F10411F591111CC078
:100F5000F1E0BF1219C068E0C6019CD82FE738E362
:100F600061E0215030406040E1F700C00000F8949B
:100F7000E2E4EF93EFE4EF93EFE4EF93E4E5EF9334
:100F8000E0E0FEE009947BCC63E0C6010AD977CCAF
:100F900081E0E816F104A1F491110DC08FEF8B0DE3
:100FA0008E3F48F46B2D80E090E0EBD068E0C60106
:100FB00071D87B2C64CC63E0C801F3D8B72CF9CF8F
:100FC000A1E1EA16F10409F0B1C0911108C06B2D3E
:100FD00081E090E0D6D068E0C6015CD850CC63E0F8
:100FE0005CCFF2019081882309F4DECE8B2D8095B1
:100FF0009823F201908392CE97013250213231052D
:1010000008F0B2CD32E0B3123ACCD80112968C93EC
:10101000FF24C70169E070E094D0E1E0F0E0EC0F5C
:10102000FD1F8E0F9F1FDC018C91803109F034CFA2
:10103000F894C70169E070E084D001967F01E80E62
:10104000F91ED8D8882309F424CFC7011BD984E41A
:101050000AD9AED88823E9F3CDD8882309F419CF6B
:10106000C70110D98EEBFFD8B7D8F82ECF5CDE4F72
:101070008883C153D140B0D8E82ECE5CDE4F888340
:10108000C253D140A9D8CD5CDE4F8883C353D14031
:10109000A3D8CC5CDE4F8883C453D1409DD8CB5CB1
:1010A000DE4F8883C553D14097D8CA5CDE4F888312
:1010B000C653D14091D8C95CDE4F8883C753D14015
:1010C0008BD8C85CDE4F8883C853D14085D8C75CB5
:1010D000DE4F8883C953D140FE01EF5CFE4FAF0164
:1010E000485F5F4F90E0319128E0632F6927969524
:1010F00060FF02C0BCE89B2736952150B1F74E1720
:101100005F0789F77E2D6F2D891711F06EEF7FEF46
:10111000789490E080E03CD120E030E040E85DE36E
:10112000C5D1F80193838483758355CCF1E2EF1622
:10113000F10409F0A4CB911152CF6B2D82E090E025
:1011400049CF0024552704C0080E591F880F991F46
:10115000009729F076956795B8F37105B9F7802D5A
:10116000952F089569279627692778278727782755
:101170000895E199FECF9FBB8EBBE09A99278DB36E
:101180000895262FE199FECF1CBA9FBB8EBB2DBBC5
:101190000FB6F894E29AE19A0FBE0196089550585E
:1011A000BB27AA270ED048C139D130F03ED120F05C
:1011B00031F49F3F11F41EF42EC10EF4E095E7FBCD
:1011C00024C1E92F4AD180F3BA1762077307840755
:1011D000950718F071F49EF562C10EF4E0950B2EA0
:1011E000BA2FA02D0B01B90190010C01CA01A00179
:1011F0001124FF27591B99F0593F50F4503E68F1D4
:101200001A16F040A22F232F342F4427585FF3CF14
:10121000469537952795A795F0405395C9F77EF4E5
:101220001F16BA0B620B730B840BBAF09150A1F02E
:10123000FF0FBB1F661F771F881FC2F70EC0BA0FB4
:10124000621F731F841F48F4879577956795B7953C
:10125000F7959E3F08F0B3CF9395880F08F0992734
:10126000EE0F9795879508950CD0E6C0DED040F03C
:10127000D5D030F021F45F3F19F0C7C0511110C133
:10128000CAC0EBD098F39923C9F35523B1F3951B4A
:10129000550BBB27AA2762177307840738F09F5F97
:1012A0005F4F220F331F441FAA1FA9F333D00E2E06
:1012B0003AF0E0E830D091505040E695001CCAF773
:1012C00029D0FE2F27D0660F771F881FBB1F261738
:1012D00037074807AB07B0E809F0BB0B802DBF010B
:1012E000FF2793585F4F2AF09E3F510568F08DC04D
:1012F000D7C05F3FECF3983EDCF386957795679512
:10130000B795F7959F5FC9F7880F911D96958795BB
:1013100097F90895E1E0660F771F881FBB1F6217DA
:1013200073078407BA0720F0621B730B840BBA0B98
:10133000EE1F88F7E095089598D088F09F5790F0B9
:10134000B92F9927B751A0F0D1F0660F771F881FEA
:10135000991F1AF0BA95C9F712C0B13081F09FD029
:10136000B1E008959CC0672F782F8827B85F39F0C7
:10137000B93FCCF3869577956795B395D9F73EF449
:1013800090958095709561957F4F8F4F9F4F0895F1
:10139000E89409C097FB3EF490958095709561950F
:1013A0007F4F8F4F9F4F9923A9F0F92F96E9BB27C5
:1013B0009395F695879577956795B795F111F8CF41
:1013C000FAF4BB0F11F460FF1BC06F5F7F4F8F4FAC
:1013D0009F4F16C0882311F096E911C0772321F0A2
:1013E0009EE8872F762F05C0662371F096E8862F3A
:1013F00070E060E02AF09A95660F771F881FDAF791
:10140000880F9695879597F9089597F99F6780E8D3
:1014100070E060E008959FEF80EC089500240A9446
:101420001616170618060906089500240A941216BF
:101430001306140605060895092E0394000C11F4F2
:10144000882352F0BB0F40F4BF2B11F460FF04C09F
:101450006F5F7F4F8F4F9F4F089557FD9058440FF8
:10146000551F59F05F3F71F04795880F97FB991F03
:1014700061F09F3F79F087950895121613061406C0
:10148000551FF2CF4695F1DF08C01616170618064D
:10149000991FF1CF86957105610508940895E89428
:1014A000BB2766277727CB0197F908950AD0C4CFC9
:1014B000B5DF28F0BADF18F0952309F0A6CFABCF3F
:1014C000EFCFCBDFA8F39923D9F35523C9F3950FB9
:1014D00050E0551FAA27EE27FF27BB2700240894BA
:1014E000679520F4E20FF31FB41F0A1E220F331F6B
:1014F000441FAA1F6695A9F7779530F4F30FB41F20
:101500000A1E121E08F46395330F441FAA1F221FE0
:10151000769599F7879520F4B40F0A1E121E631F63
:10152000440FAA1F221F331F8695A9F7862F712DFE
:10153000602D11249F5750408AF0E1F088234AF033
:10154000EE0FFF1FBB1F661F771F881F9150504073
:10155000A9F79E3F510570F058CFA2CF5F3FECF343
:10156000983EDCF3869577956795B795F795E7955F
:101570009F5FC1F7FE2B880F911D9695879597F970
:061580000895F894FFCF6E
:00000001FF
