:1000000010C01FC036C61DC01CC0B4C51AC019C060
:1000100018C017C016C015C014C013C0B5C5302E07
:10002000303411241FBECFE5D2E0DEBFCDBF20E0CB
:10003000A0E6B0E001C01D92A43DB207E1F73BD6B7
:1000400024CDDECFFB0120813181A9014827CA01DF
:1000500028E0AC014170552796958795452B21F0F6
:1000600051E0852750EA9527215099F7FB019183AC
:1000700080830895982F96959575880F8A7A982B86
:10008000892F869586958373990F990F9C7C892B70
:1000900082950895CF92DF92EF92FF920F931F9374
:1000A000CF93DF939C01FF24F39482E0D82E94E554
:1000B000C92EEE24EA94062F020FE90189911091CE
:1000C000A5001F5F1F719091A4001917E1F3D2DF03
:1000D000E12FF0E0EC57FF4F80831093A500809153
:1000E000A70080FD16C08091A70082FDFCCFF89488
:1000F00012BEFCBCF3BED8BE89B7826089BFCDB842
:10010000EFB8EEB8B99A8091A70081608093A700FC
:1001100078949E010C13D1CFDF91CF911F910F9155
:10012000FF90EF90DF90CF900895BF92CF92DF9233
:10013000EF92FF920F931F93CF93DF9300D0CDB731
:10014000DEB78C01D62E8EEFC82EC60E8FEF9FEF36
:100150009A838983B02E7801BE016F5F7F4FF701CC
:1001600081917F016FDF8E2D8B198C15A8F339815A
:100170002A81C8018D0D911DFC01329730830197B2
:10018000FC0120836D2DC80185DF0F900F90DF915A
:10019000CF911F910F91FF90EF90DF90CF90BF9084
:1001A0000895FC01218120582183628365E0BDCF41
:1001B0009FB7F894BC9AC49820E12A95F1F7BC98AF
:1001C000C49888E18A95F1F786B322E92A95F1F778
:1001D00000C09FBF80710895CF93DF93D8E0C0E047
:1001E000C695E6DF8111C068D150D1F78C2FDF9121
:1001F000CF9108959FB7F894BC9AC498EFEBF3E0C1
:100200003197F1F700C00000BC98C498FAEBFA955A
:10021000F1F700C086B3E3E3F3E03197F1F700C0F4
:1002200000009FBF8095807108958FB7F894BC9AA5
:10023000C49890EA9A95F1F7BC98C4989AE19A9577
:10024000F1F700C08FBF08958FB7F894BC9AC49897
:1002500090E19A95F1F7BC98C4989AEA9A95F1F7CB
:1002600000C08FBF0895CF93DF93D82FC8E0D0FF91
:1002700007C0EADFD695C150D1F7DF91CF9108953D
:10028000D4DFF8CF0F931F93CF93DF93EC0185E575
:10029000EADF8E01085F1F4F8991E5DFC017D107A4
:1002A000D9F7DF91CF911F910F9108958F929F926F
:1002B000AF92BF92CF92DF92EF92FF92CF9386B12F
:1002C000877D86B9379A8FE887B98FE99FE00197D4
:1002D000F1F700C00000C4E0C12CD12C7601369AA1
:1002E0003699FECF64B175B190E080E0D7DA9B011A
:1002F000AC01C701B601D3D96B017C01C15079F7BC
:1003000020E030E040E85EE355DB4B015C013798CC
:10031000379A8CE187B98FE99FE00197F1F700C028
:100320000000C4E0C12CD12C7601369A3699FECF5C
:1003300064B175B190E080E0B1DA9B01AC01C70116
:10034000B601ADD96B017C01C15079F720E030E0F6
:1003500040E85EE32FDB9B01AC016DEC7CEC8CE8AC
:1003600094E401DA6B017C01379820E030E040E250
:1003700051E420DB65DACDE06E3128F4613108F418
:1003800061E1CFEEC60FC092D000D092D100E092D2
:10039000D200F092D30023E333E748E853E4C501E9
:1003A000B4017CD92AE939E949E85FE3DCD96B017A
:1003B0007C016C2F70E090E080E06EDA20E030E0AD
:1003C00040E551E4D0D99B01AC01C701B60167D922
:1003D0006093CC007093CD008093CE009093CF00BB
:1003E000CF91FF90EF90DF90CF90BF90AF909F9014
:1003F0008F90089571E0BA9ABC9800000000000048
:10040000B4D3BA98B2D3A894000000000000B29B05
:10041000A7D3B2F08894B4990894771F60F7BA9A7A
:10042000803011F0BC9801C0BC9A000000000000B0
:100430009CD3BA98A89400000000B29B91D395D3A6
:1004400000000000BA9A872F9927089580E2089546
:100450000894881F01C0880FB9F0BA9A0000000004
:10046000000018F40000BC9802C0BC9A00C07DD304
:10047000BA98A894000000000000B29B71D312F457
:10048000882712C072D3E7CFBA9A00000000BC9848
:100490006CD399278827BA98A8940000B29B60D3A0
:1004A0007AF3B49B81E061D300000000BA9A08950A
:1004B00081E00895BA9ABC9A58D3BA9856D3B29BA1
:1004C0004FD3BC9852D378940895F894BA9A4DD3E8
:1004D000BC984BD3BA9849D3B29B42D3BC9A45D36C
:1004E000B7CF81E00895F894B29B3AD3BC9A3DD33C
:1004F000AFCF81E00895BC98BA98C498C298882775
:100500009927B49B0895B29B089581E0089581E0F6
:1005100008952F923F924F925F926F927F928F92A7
:100520009F92AF92BF92CF92DF92EF92FF920F9382
:100530001F93CF93DF93CDB7DEB72B970FB6F89409
:10054000DEBF0FBECDBF082FD6DF8CEECCDF87EF2E
:100550007FDF8DEEBADF80E04DDF8B8780E04ADF02
:100560008A8780E047DF898380E044DF90E0B0E065
:10057000A0E04C015D012CE0880C991CAA1CBB1C5E
:100580002A95D1F780E036DF90E0B0E0A0E06C0182
:100590007D0134E0CC0CDD1CEE1CFF1C3A95D1F73C
:1005A000C828D928EA28FB2880E024DF82958F70AC
:1005B000C82A80E01FDF782E81E01CDF7BDF80907F
:1005C000A8009090A900B12CA12C1601270144E0AD
:1005D00055944794379427944A95D1F728183908A9
:1005E0004A085B0853E0F594E794D794C7945A956A
:1005F000D1F7880C991CAA1CBB1CC701B60168194D
:1006000079098A099B092091AA003091AB00032E39
:10061000000C440B550BEAD74B015C017BE0B59411
:10062000A794979487947A95D1F7A2019101C2017A
:10063000B101DCD7ECE09595879577956795EA95BC
:10064000D1F72091AC003091AD00032E000C440B8B
:10065000550BCCD7FEE09595879577956795FA95DC
:10066000D1F7680D791D8A1D9B1D6093C80070939A
:10067000C9008093CA009093CB00013081F1023011
:1006800009F485C125E030E040E050E0AFD76B01D0
:100690007C0120E8C20ED11CE11CF11CCD2CDE2C0B
:1006A000EF2CFF24E7FCFA94C701B6012B960FB696
:1006B000F894DEBF0FBECDBFDF91CF911F910F9198
:1006C000FF90EF90DF90CF90BF90AF909F908F9072
:1006D0007F906F905F904F903F902F900895E091A2
:1006E000B400F091B500FB83EA830091B60010914D
:1006F000B7002090B8003090B9002091BA00309136
:10070000BB003D832C83E091BC00F091BD00FF83D2
:10071000EE832091BE003091BF00398728874B01BE
:100720005C01B594A794979487943AEF931AA10823
:10073000B108C501B40122E0959587957795679535
:100740002A95D1F79B01AC0151D72B013C01609157
:10075000B2007091B300072E000C880B990BA30117
:100760009201EDE05595479537952795EA95D1F794
:100770003DD76B017C01F3E0F594E794D794C794DF
:10078000FA95D1F76091B0007091B100072E000C7E
:10079000880B990BA501940129D795958795779595
:1007A00067956C0D7D1D8E1D9F1DB2E195958795FA
:1007B00077956795BA95D1F770588F4F9F4F2091D5
:1007C000AE003091AF0050E040E010D76B017C01EB
:1007D0008FE0F594E794D794C7948A95D1F7C11424
:1007E000D104E104F10409F45FCFC301B2013BE09D
:1007F00095958795779567953A95D1F79101330C43
:10080000440B550BF3D62B013C01B801110F880B9B
:10081000990BA5019401EAD64B015C01880C991C47
:10082000AA1CBB1C840C951CA61CB71C52E0B594DA
:10083000A794979487945A95D1F78B85482E512C7D
:10084000712C612C6CE0440C551C661C771C6A955D
:10085000D1F7EA856E2F70E090E080E0E4E0660F6B
:10086000771F881F991FEA95D1F7198112951F707C
:10087000612B64297529862997292A813B812901C1
:10088000330F66087708320155244424480C591C5C
:100890006A1C7B1CACE07594679457944794AA95A6
:1008A000D1F7640D751D861D971D2BEC33EF4FEFAF
:1008B0005FEF9CD6805B9C4397FD5FC0660F771F00
:1008C000881F991FA7019601AAD629013A01C301E1
:1008D000B20153E096958795779567955A95D1F72C
:1008E0009B01AC0183D6EDE096958795779567954A
:1008F000EA95D1F7E885F9859F01FF0F440B550B69
:1009000075D64B015C01FCE0B594A794979487944D
:10091000FA95D1F7C301B201A2E096958795779534
:100920006795AA95D1F7EE81FF819F01FF0F440BD8
:10093000550B5CD66B017C01BDE0F594E794D79430
:10094000C794BA95D1F7C80CD91CEA1CFB1C2C81A2
:100950003D814901330FAA08BB08C80CD91CEA1C09
:10096000FB1C14E0F594E794D794C7941A95D1F73B
:10097000C40CD51CE61CF71C97CEA70196014FD6D8
:1009800029013A01440C551C661C771CA0CF20910C
:10099000C5004B015C013CE2931A31E0A30AB108A7
:1009A000C72CD12CDC2CCC24F12CE12C4EE0CC0C2F
:1009B000DD1CEE1CFF1C4A95D1F78091C40090E02D
:1009C00054E0880F991F5A95E1F7322F3F70832B1F
:1009D000B0E0A0E064E1880F991FAA1FBB1F6A95D1
:1009E000D1F7C81AD90AEA0AFB0A6091C60070E07A
:1009F000E4E0660F771FEA95E1F722952F70622BEE
:100A000090E080E0A5019401F1D5C61AD70AE80A62
:100A1000F90A80E4D80EE11CF11CFFE0F594E7949C
:100A2000D794C794FA95D1F76091C300062E000CB5
:100A3000770B880B990BA5019401D8D52B013C01AC
:100A4000ABE07594679457944794AA95D1F790E8D2
:100A5000590E611C711C6091C700062E000C770BAB
:100A6000880B990BA5019401C1D59B01AC01BAE09B
:100A70005595479537952795BA95D1F7C301B2019A
:100A8000B5D51AE095958795779567951A95D1F71D
:100A900080962091C1003091C200032E000C440BBF
:100AA000550BA4D59B01AC01305E4F4F5F4F0EE05C
:100AB00055954795379527950A95D1F7C701B60102
:100AC00095D56B017C012FE0959587957795679576
:100AD0002A95D1F79B01AC0189D537E0959587958B
:100AE000779567953A95D1F72091C000022E000CBA
:100AF000330B440B550B7AD544E095958795779544
:100B000067954A95D1F7C61AD70AE80AF90AF7FE97
:100B100003C0C12CD12C7601C701B601613071052B
:100B20008105E9E19E0724F060E070E080E099E152
:100B30002CE095958795779567952A95D1F7ACD652
:100B400020E030E040E85AE335D720E030E048ECE0
:100B500052E430D770D66B01770FEE08FF08A4CDB2
:100B6000B29BFECFA8940895089598E09A95F1F766
:100B7000089508958F938FB78F9382B78E5C82BF4D
:100B80008F918FBF8F9118951F921FB61F921124BE
:100B90008F939F93EF93FF938091A70080FF4FC0A7
:100BA000C39A8091A70081FF16C08091A7008D7F16
:100BB0008093A7008BEF8EB98091A600880F880FD5
:100BC000880F87608FB9FF91EF919F918F911F9050
:100BD0001FBE1F9018959091A5008091A4009817B2
:100BE000C9F08091A70082608093A700E091A400E3
:100BF000EF5FEF71E093A400F0E0EC57FF4F8081CE
:100C00008093A6008BEF8EB98091A600869586957D
:100C10008068D8CFC3988091A7008E7F8093A7006B
:100C200013BE88B3836088BB87B38C7F87BB1DB836
:100C300080E28ABF8BB780628BBFA89AC4CFC3986B
:100C40008091A7008B7F8093A700E0918300EF5FE6
:100C5000EF71809182008E1304C08091A70088609C
:100C6000DDCFE09383008FB1F0E0EE59FF4F80833A
:100C7000D7CF8F938FB78F93B09919C081E182BF7F
:100C800082B7885682BF81E08CBD83BF82E088BF77
:100C900089B7826089BF84E58DB987EF8EB98BB73C
:100CA0008F7D8BBF8091A70084608093A7008F9178
:100CB0008FBF8F911895CDB7DEB7CB54D1400FB60B
:100CC000F894DEBF0FBECDBFF89480E090E0D0D4A2
:100CD000CC5BDE4F8883C454D14081E090E0C8D41F
:100CE000CA5BDE4F8883C654D140E0DABA98BC981C
:100CF000C4988FEB93E00197F1F700C000001092C9
:100D00008200109283001092A4001092A500BB9A5A
:100D1000C39888B3836088BB87B38C7F87BB1DB8BB
:100D200080E28ABF8BB780628BBFA89A78948E01CD
:100D30000F5D1E4FD8011B96C65BDE4FB983A8839B
:100D4000CA54D140FE013296CE5BDE4FF983E88370
:100D5000C254D140A8959091830080918200981749
:100D6000C9F38FE097E20197F1F700C0000090917E
:100D7000830080918200981769F37E0196ECE91A4E
:100D80009EEFF90AC7010796F701670121812193B8
:100D90008E179F07D9F79091830080918200981752
:100DA000D1F3E0918200EF5FEF71E0938200F0E019
:100DB000EE59FF4F80815ED9D70117968C93179714
:100DC0009C91CC5BDE4FB881C454D1409B13CFCFF4
:100DD000F70191812DEF290F223010F0963039F66E
:100DE000D7011696AC90B82E2FEF3FEFF801318364
:100DF0002083470136E0830E911CB801D7018D9105
:100E00007D0120D9E814F904C1F7F80180819181AE
:100E1000A816B90609F0ABCFD6011296ED90FC905A
:100E20001397FE24EF24FE241596BC901597149674
:100E30009C91CC5BDE4FB881C454D140B083F601A5
:100E40008181843009F48FC0863009F4EEC283308A
:100E500009F08DCFD80111968C931197E114F1040C
:100E600051F4B1E0BB1283CF82E0F8018283138298
:100E7000148267E023C0F1E0EF16F10411F522E0DF
:100E8000B21275CF84E012968C931297EEE1F0E0E7
:100E9000E4911396EC931397EFE1F0E0E49114964C
:100EA000EC931497E0E2F0E0E4911596EC9315973B
:100EB000E1E2F0E0E4911696EC9369E0C80135D9DF
:100EC00056CFB2E0EB16F10499F4E1E0BE124FCF39
:100ED00082E0D80112968C9380E090E0C9D3CC5B7D
:100EE000DE4F8883C454D140F80113828483C1CF7C
:100EF000F3E0EF16F104B9F422E0B21238CF84E047
:100F0000D80112968C93D2D96091D0007091D10003
:100F10008091D2009091D300A4D3F80163837483AD
:100F200085839683CACFF4E0EF16F10409F01FCF52
:100F3000D60115968C91823009F019CF84E0F80122
:100F40008283B4D96091CC007091CD008091CE00A5
:100F50009091CF0086D3D80113966D937D938D9396
:100F60009C931697AACFF8018183E114F10409F04C
:100F700084C0F1E0BF12FBCE82E0D80112968C93C0
:100F8000129713961C92139780E214968C9367E045
:100F9000C801CBD8C70180549241039708F0E7CE2F
:100FA000F6018581823009F0E2CE84E0D801129604
:100FB0008C938091600081114CC09DDA8CEE93DAA5
:100FC00088E846DA8DEE81DA98EAC92E90E0D92ECB
:100FD00080E010DAF60181936F01F0ECCF16F0E0BB
:100FE000DF06B1F781E006DA8093C10063DA8CEEA8
:100FF0007ADA81EE2DDA8DEE68DA81ECC82E80E0A7
:10100000D82E80E0F7D9D6018D936D01B8ECCB16C0
:10101000B0E0DB06B1F781E0EDD98093C9004ADA90
:101020008CEE61DA82EF14DA81E012DA43DA8CEEC8
:101030005ADA84EF0DDA87E20BDA3CDA8CEE53DA17
:1010400085EF06DA80EA04DA35DA34DA81E0809373
:10105000600080E0E0E4EE16E2E1FE0639F0F1E443
:10106000EF16F2E1FF0609F0C1C181E052DA16D4B1
:1010700020E030E048EC52E49AC2B1E0EB16F10413
:1010800009F0E2C0E1E0BE1272CE82E0D801129611
:101090008C93129713961C92F894FE0131963F019F
:1010A0001082118212821382148215821682178294
:1010B00010863996E017F10799F79CD8811110C076
:1010C000789480E0D3019C91903109F48F5FB9E06E
:1010D0006B0E711C60167106A9F7F801848357CF57
:1010E000CE5BDE4FE881C254D140CD5BDE4FF8814C
:1010F000C354D140CB5BDE4F1882C554D1405E2E25
:101100004F2E812C88E0A52DB42D01900D928A954B
:10111000E1F770D880EFA7D899249394BB24B394B7
:10112000252C342CA12C44D8C75BDE4F8883C954AE
:10113000D1403ED8C75BDE4FF881C954D140FF2370
:1011400009F4CAC1811161C0D1018C918B298C93A2
:10115000D1018C918B2109F456C076D89394BB0CA5
:1011600029F4BFEF2B1A3B0ABB24B394E1E49E128F
:10117000DACF882D90E069E070E027D2860D971DC8
:10118000E0E1DC01EC938394882D90E069E070E06D
:101190001CD2860D971D0196CB5BDE4FA882C554ED
:1011A000D140E52DF42DA1100EC09E01275F3F4FC9
:1011B00090E089122DC07894AA2009F482CF61E1D1
:1011C000C801EFD7E7CE582E492E9CCFCB5BDE4F20
:1011D000F881C554D140F91104C09B29D1019C93D9
:1011E000B7CFCB5BDE4FB881C554D140B91538F4C9
:1011F0008B2D80959823F1019083A92CA9CF9B2159
:1012000009F0A6CFFACF11D8A9CFAA24AA94B1CFBA
:10121000F901379780E0519148E0652F682786955E
:1012200060FF02C06CE8862756954150B1F7E2177F
:10123000F30789F7275F3F4F4081481302C09F5F44
:10124000B8CFAA24AA94B7CF97013A952132310595
:1012500008F04DC1F4E0BF128ACD88E0D8011296A3
:101260008C93FF24C70169E070E0AFD1E1E0F0E0CA
:10127000EC0FFD1F8E0F9F1FDC018C91803109F058
:10128000B2C0C70169E070E0A0D10196E1E0F0E0F2
:10129000EC0FFD1FE80FF91FD801139681918D9374
:1012A000C65BDE4F28813981CA54D1402A173B07DB
:1012B000A9F76DE003CE32E0B31259CDD8011296F2
:1012C0008C93FF24C70169E070E07FD1E1E0F0E09A
:1012D000EC0FFD1F8E0F9F1FDC018C91803109F0F8
:1012E00082C0F894C70169E070E06FD101967F0178
:1012F000E80EF91E7FD7882309F472C0C701C2D750
:1013000084E4B1D755D78823E9F374D7882309F447
:1013100067C0C701B7D78EEBA6D75ED7F82ECF5CD4
:10132000DE4F8883C153D14057D7E82ECE5CDE4FC5
:101330008883C253D14050D7CD5CDE4F8883C353DE
:10134000D1404AD7CC5CDE4F8883C453D14044D7C8
:10135000CB5CDE4F8883C553D1403ED7CA5CDE4F9D
:101360008883C653D14038D7C95CDE4F8883C753C2
:10137000D14032D7C85CDE4F8883C853D1402CD7C8
:10138000C75CDE4F8883C953D140FE01EF5CFE4F3E
:10139000AF01485F5F4F90E0319128E0632F6927EC
:1013A000969560FF02C0BCE89B2736952150B1F7A7
:1013B000E417F50789F77E2D6F2D891711F06EEF71
:1013C0007FEF789490E080E067D220E030E040E862
:1013D0005DE3F0D2F80193838483758366836DCDDA
:1013E0006DEF7FEFEECF62E0C80144C082E091D89C
:1013F00055D220E030E048EC52E4B5D16B017C01DD
:10140000CA5BDE4F2881C654D140622F70E090E065
:1014100080E042D220E030E040E251E4A4D19B01E0
:10142000AC01C701B6013BD1C3C0F8018183E1140F
:10143000F10411F591111CC0F1E0BF1219C068E070
:10144000C60128D62FE738E361E0215030406040E4
:10145000E1F700C00000F894E2E4EF93EFE4EF93CB
:10146000EFE4EF93E4E5EF93E0E0FEE009947FCC56
:1014700063E0C60196D67BCC81E0E816F10499F4CE
:10148000911128C08FEF8B0D8E3F20F56B2D80E0E2
:1014900090E0F6D068E0C601FDD5CC5BDE4FB882A7
:1014A000C454D14064CCA1E1EA16F10409F05FCC48
:1014B000911110C0BFEFBB1669F06B2D81E090E079
:1014C000DFD068E0C601E6D5CA5BDE4FB882C654FD
:1014D000D1404DCC63E088CFF1019081882309F49D
:1014E00075CE8B2D80959823F101908331CE970195
:1014F00032502132310508F4DECEF0E2EF16F2E18F
:10150000FF0609F047CD22E0B21231CCD801129685
:101510008C9380916100811113C0F89486E4E3D725
:1015200081E196D7C7D77894BFE7E0E2F5E0B15004
:10153000E040F040E1F700C0000081E080936100EE
:10154000F894D9D787E4CFD780E054D7282F2695B1
:10155000C85BDE4F2883C854D1408795882787957C
:10156000C95BDE4F8883C754D14081E043D7D82E72
:10157000E82EE694C95BDE4F88819981C754D1403B
:101580008E0D911D7C0196D77894B70190E080E094
:1015900083D120E030E0A901D0FE04C020E030E09B
:1015A00040E05FE37CD02AE939E949E95FE3DBD039
:1015B000D80113969C93139714968C9314971596B1
:1015C0007C93159716966C9378CC0024552704C00D
:1015D000080E591F880F991F009729F07695679577
:1015E000B8F37105B9F7802D952F0895EE27FF27E1
:1015F000AA27BB2708C0A20FB31FE41FF51F220FA5
:10160000331F441F551F969587957795679598F3D7
:101610007040A9F7009799F7BD01CF010895A1E2A5
:101620001A2EAA1BBB1BFD010DC0AA1FBB1FEE1F5C
:10163000FF1FA217B307E407F50720F0A21BB30BA7
:10164000E40BF50B661F771F881F991F1A9469F723
:1016500060957095809590959B01AC01BD01CF017F
:101660000895692796276927782787277827089577
:10167000E199FECF9FBB8EBBE09A99278DB3089569
:10168000262FE199FECF1CBA9FBB8EBB2DBB0FB698
:10169000F894E29AE19A0FBE019608955058BB273C
:1016A000AA270ED04DC13ED130F043D120F031F405
:1016B0009F3F11F41EF433C10EF4E095E7FB29C1FE
:1016C000E92F4FD180F3BA17620773078407950794
:1016D00018F071F49EF567C10EF4E0950B2EBA2F49
:1016E000A02D0B01B90190010C01CA01A001112428
:1016F000FF27591B99F0593F50F4503E68F11A16D4
:10170000F040A22F232F342F4427585FF3CF469564
:1017100037952795A795F0405395C9F77EF41F1686
:10172000BA0B620B730B840BBAF09150A1F0FF0F50
:10173000BB1F661F771F881FC2F70EC0BA0F621F3C
:10174000731F841F48F4879577956795B795F7952C
:101750009E3F08F0B3CF9395880F08F09927EE0FBE
:101760009795879508950CD0EBC0E3D040F0DAD080
:1017700030F021F45F3F19F0CCC0511115C1CFC03A
:10178000F0D098F39923C9F35523B1F3951B550B6A
:10179000BB27AA2762177307840738F09F5F5F4F44
:1017A000220F331F441FAA1FA9F333D00E2E3AF085
:1017B000E0E830D091505040E695001CCAF729D09F
:1017C000FE2F27D0660F771F881FBB1F26173707EE
:1017D0004807AB07B0E809F0BB0B802DBF01FF271E
:1017E00093585F4F2AF09E3F510568F092C0DCC0CD
:1017F0005F3FECF3983EDCF3869577956795B79558
:10180000F7959F5FC9F7880F911D9695879597F972
:101810000895E1E0660F771F881FBB1F62177307EB
:101820008407BA0720F0621B730B840BBA0BEE1F00
:1018300088F7E095089504D06894B111B5C0089573
:1018400098D088F09F5790F0B92F9927B751A0F002
:10185000D1F0660F771F881F991F1AF0BA95C9F744
:1018600012C0B13081F09FD0B1E008959CC0672FC5
:10187000782F8827B85F39F0B93FCCF386957795F4
:101880006795B395D9F73EF49095809570956195DD
:101890007F4F8F4F9F4F0895E89409C097FB3EF408
:1018A00090958095709561957F4F8F4F9F4F9923AD
:1018B000A9F0F92F96E9BB279395F695879577952B
:1018C0006795B795F111F8CFFAF4BB0F11F460FFEB
:1018D0001BC06F5F7F4F8F4F9F4F16C0882311F043
:1018E00096E911C0772321F09EE8872F762F05C057
:1018F000662371F096E8862F70E060E02AF09A95F2
:10190000660F771F881FDAF7880F9695879597F9E6
:10191000089597F99F6780E870E060E008959FEF71
:1019200080EC089500240A94161617061806090676
:10193000089500240A941216130614060506089545
:10194000092E0394000C11F4882352F0BB0F40F4CD
:10195000BF2B11F460FF04C06F5F7F4F8F4F9F4F0D
:10196000089557FD9058440F551F59F05F3F71F08F
:101970004795880F97FB991F61F09F3F79F08795F6
:101980000895121613061406551FF2CF4695F1DF7F
:1019900008C0161617061806991FF1CF869571050F
:1019A000610508940895E894BB2766277727CB0143
:1019B00097F908950AD0C4CFB5DF28F0BADF18F040
:1019C000952309F0A6CFABCFEFCFCBDFA8F39923B8
:1019D000D9F35523C9F3950F50E0551FAA27EE27D9
:1019E000FF27BB2700240894679520F4E20FF31F1C
:1019F000B41F0A1E220F331F441FAA1F6695A9F7A2
:101A0000779530F4F30FB41F0A1E121E08F4639585
:101A1000330F441FAA1F221F769599F7879520F44C
:101A2000B40F0A1E121E631F440FAA1F221F331F6A
:101A30008695A9F7862F712D602D11249F57504050
:101A40008AF0E1F088234AF0EE0FFF1FBB1F661FEC
:101A5000771F881F91505040A9F79E3F510570F0A5
:101A600058CFA2CF5F3FECF3983EDCF38695779595
:101A70006795B795F795E7959F5FC1F7FE2B880FA0
:0E1A8000911D9695879597F90895F894FFCFDC
:00000001FF
