:1000000010C02AC075C728C027C0F3C625C024C0A9
:1000100023C022C021C020C01FC01EC0F4C6302E85
:10002000303311241FBECFE5D2E0DEBFCDBF10E0DC
:10003000A0E6B0E0E6E7FBE102C005900D92A43631
:10004000B107D9F720E0A4E6B0E001C01D92A93DB8
:10005000B207E1F76FD78DCDD3CFFB01208131817E
:10006000A9014827CA0128E0AC014170552796959F
:100070008795452B21F051E0852750EA952721509F
:1000800099F7918380830895982F96959575880F99
:100090008A7A982B892F869586958373990F990F65
:1000A0009C7C892B82950895CF92DF92EF92FF92EC
:1000B0000F931F93CF93DF938C01FF24F39492E06F
:1000C000D92E24E5C22EEE24EA94D62FD80FF801BB
:1000D00080810F5F1F4FC091AA00CF5FCF719091B9
:1000E000A900C917E1F3D0DFEC2FF0E0E757FF4F8D
:1000F0008083C093AA008091AC0080FD16C08091DF
:10010000AC0082FDFCCFF89412BEFCBCF3BED8BE9E
:1001100089B7826089BFCDB8EFB8EEB8B99A80913F
:10012000AC0081608093AC007894D013D0CFDF9185
:10013000CF911F910F91FF90EF90DF90CF90089596
:10014000BF92CF92DF92EF92FF920F931F93CF93C4
:10015000DF9300D0CDB7DEB78C01F62E8EEFE82E00
:10016000E60E8FEF9FEF9A838983B02E6801BE0160
:100170006F5F7F4FF60181916F016FDF8C2D8B19BF
:100180008E15A8F339812A81C8018F0D911DFC01BC
:10019000329730830197FC0120836F2DC80184DFE3
:1001A0000F900F90DF91CF911F910F91FF90EF90E3
:1001B000DF90CF90BF900895BF92CF92DF92EF92E1
:1001C000FF920F931F93CF93DF9300D000D000D006
:1001D000CDB7DEB786B1877D86B9379A8FE887B904
:1001E0008FE99FE00197F1F700C0000094E0F92E3D
:1001F00000E010E01E821D82369A3699FECF84B14F
:1002000095B19C0150E040E029833A834B835C83A5
:10021000CA01B901B7DB9B01AC0109831A838E8146
:100220008B839D819C8369817A818B819C81ABDAF0
:100230008B018E839D83FA94F110DECF20E030E0B5
:1002400040E85EE369831A838B839C8369817A81AA
:100250008B819C8123DC7B018C013798379A8CE160
:1002600087B9AFE9BFE01197F1F700C0000084E063
:10027000B82EC12CD12C1E821D82369A3699FECF03
:1002800084B195B19C0150E040E029833A834B83CF
:100290005C83CA01B90176DB9B01AC01C982DA82B9
:1002A0008E818B839D819C8369817A818B819C81E6
:1002B0006ADA6B018E839D83BA94B110DECF20E0A1
:1002C00030E040E85EE36983DA828B839C83698156
:1002D0007A818B819C81E2DB9B01AC016DEC7CEC33
:1002E0008CE894E4B4DAB62EC72ED82E9E833798C5
:1002F00020E030E040E251E469837A838B839C8381
:1003000069817A818B819C81C9DB69837A838B8344
:100310009C8369817A818B819C8106DB262F6E31DB
:1003200008F06CC0613108F421E121512D834B2D7F
:100330005C2D6D2D7E814093D5005093D600609347
:10034000D7007093D80023E333E748E853E4E98209
:10035000FA820B831C8369817A818B819C8112DAFA
:100360002AE939E949E85FE369837A838B839C83CF
:1003700069817A818B819C816ADAF62E072F182F8A
:100380009E833D81232F30E050E040E029833A8373
:100390004B835C83CA01B901F3DA20E030E040E529
:1003A00051E469837A838B839C8369817A818B8111
:1003B0009C814DDA9B01AC01F9820A831B838E81FB
:1003C0008C8369817A818B819C81DDD96093D10096
:1003D0007093D2008093D3009093D40026960FB6EA
:1003E000F894DEBF0FBECDBFDF91CF911F910F916B
:1003F000FF90EF90DF90CF90BF900895ADE0AD8378
:1004000096CF71E0BA9ABC98000000000000ECD4CE
:10041000BA98EAD4A894000000000000B29BDFD490
:10042000B2F08894B4990894771F60F7BA9A803034
:1004300011F0BC9801C0BC9A000000000000D4D4A8
:10044000BA98A89400000000B29BC9D4CDD4000093
:100450000000BA9A872F9927089580E2089508949A
:10046000881F01C0880FB9F0BA9A00000000000090
:1004700018F40000BC9802C0BC9A00C0B5D4BA9869
:10048000A894000000000000B29BA9D412F48827B1
:1004900012C0AAD4E7CFBA9A00000000BC98A4D436
:1004A00099278827BA98A8940000B29B98D47AF329
:1004B000B49B81E099D400000000BA9A089581E0CD
:1004C0000895BA9ABC9A90D4BA988ED4B29B87D425
:1004D000BC988AD478940895F894BA9A85D4BC9834
:1004E00083D4BA9881D4B29B7AD4BC9A7DD4B7CF46
:1004F00081E00895F894B29B72D4BC9A75D4AFCFC2
:1005000081E00895CF93DF93C82F80ECF3DF8C2F29
:10051000A6DF81ECE1DF80E074DFC82FD0E081E06E
:1005200070DFD82BCEDFCE01DF91CF910895CF932E
:10053000DF93D62FC42F880FDDDF8D2F90DF8C2F18
:100540008EDFDF91CF91BDCFCF93482F406868E118
:1005500080E6EDDF80ECCEDF8EE281DF81ECBCDF78
:1005600081E04FDFC82FADDF8C2FCF910895CF935F
:10057000C82F462F67E180E6DADF4C2F406A68E13A
:1005800080E6D5DF80ECB6DF8EE269DF81ECA4DFA8
:1005900081E037DFC82F95DF8C2FCF910895BC986D
:1005A000BA98C498C29888279927B49B0895B29B9B
:1005B000089581E0089581E008952F923F924F922F
:1005C0005F926F927F928F929F92AF92BF92CF92E3
:1005D000DF92EF92FF920F931F93CF93DF93CDB7EC
:1005E000DEB764970FB6F894DEBF0FBECDBF082FFD
:1005F000D6DF8CEE7FDF87EF32DF8DEE6DDF80E0C0
:1006000000DF8C8B80E0FDDE8B8B80E0FADE8D835B
:1006100080E0F7DE90E0B0E0A0E04C015D011CE07E
:10062000880C991CAA1CBB1C1A95D1F780E0E9DE46
:1006300090E0B0E0A0E06C017D0184E0CC0CDD1C1A
:10064000EE1CFF1C8A95D1F7C828D928EA28FB2878
:1006500080E0D7DE82958F70C82A80E0D2DE782EC7
:1006600081E0CFDE2EDF4091AD005091AE0070E012
:1006700060E0D701C60124E0B595A79597958795C9
:100680002A95D1F74C015D01841A950AA60AB70A8A
:1006900089829A82AB82BC8233E0F594E794D79446
:1006A000C7943A95D1F7440F551F661F771FD7019E
:1006B000C601841B950BA60BB70B89879A87AB875E
:1006C000BC872091AF003091B000032E000C440B8A
:1006D000550BBC01CD01FED769877A878B879C8734
:1006E0004B015C01FBE0B594A79497948794FA952D
:1006F000D1F729813A814B815C81CA01B901EAD7DE
:100700009B01AC01ACE05595479537952795AA9587
:10071000D1F729833A834B835C832091B1003091D8
:10072000B200032E000C440B550B69817A818B813A
:100730009C81D0D769837A838B839C83BEE0959517
:10074000879577956795BA95D1F7680D791D8A1DBC
:100750009B1D6093CD007093CE008093CF0090934B
:10076000D000013081F1023009F4DBC125E030E036
:1007700040E050E0AFD76B017C0130E8C30ED11CE4
:10078000E11CF11CCD2CDE2CEF2CFF24E7FCFA94AD
:10079000C701B60164960FB6F894DEBF0FBECDBF99
:1007A000DF91CF911F910F91FF90EF90DF90CF904D
:1007B000BF90AF909F908F907F906F905F904F9081
:1007C0003F902F9008958090B9009090BA009A863B
:1007D00089860091BB001091BC002090BD00309034
:1007E000BE00A090BF00B090C000BE86AD868090D5
:1007F000C1009090C200988A8F86A090C300B090EC
:10080000C400BA8AA98A4B015C01B594A794979455
:1008100087942AEF921AA108B108D501C40142E0D9
:10082000B595A795979587954A95D1F789839A832A
:10083000AB83BC839C01AD01CD01B9014BD72B012A
:100840003C018091B7009091B8009C01990F440B36
:10085000550B29833A834B835C83A30192016DE09E
:1008600055954795379527956A95D1F769817A818E
:100870008B819C812FD76B017C0173E0F594E79409
:10088000D794C7947A95D1F78091B5009091B6002E
:100890009C01990F440B550B29833A834B835C834E
:1008A000A501940169817A818B819C8113D7DC0138
:1008B000CB01B595A795979587958C0D9D1DAE1D80
:1008C000BF1D6C017D01F2E1F594E794D794C794C4
:1008D000FA95D1F7D701C6019058AF4FBF4F898322
:1008E0009A83AB83BC832091B3003091B40050E075
:1008F00040E0BC01CD01EED66B017C01AFE0F59488
:10090000E794D794C794AA95D1F7C114D104E10410
:10091000F10409F43DCFA30192016BE05595479591
:10092000379527956A95D1F729833A834B835C8362
:100930009101330C440B550B69817A818B819C8129
:10094000C9D62B013C01C801110FAA0BBB0B89832F
:100950009A83AB83BC83A5019401BC01CD01BAD6B7
:10096000AB01BC01440F551F661F771F440D551D79
:10097000661D771DF2E07595679557954795FA9531
:10098000D1F79C89892E912CB12CA12CACE0880C3C
:10099000991CAA1CBB1CAA95D1F72B89822F90E029
:1009A000B0E0A0E014E0880F991FAA1FBB1F1A95A2
:1009B000D1F71D8112951F70812B88299929AA29A9
:1009C000BB2989849A842401990C6608770832012E
:1009D00055244424440E551E661E771E2CE0759443
:1009E0006794579447942A95D1F79C01AD01240D43
:1009F000351D461D571D29833A834B835C832BECA1
:100A000033EF4FEF5FEF69817A818B819C8162D6F2
:100A1000805B9C4397FD7BC04B015C01880C991C5B
:100A2000AA1CBB1CC501B401A70196016CD64901E3
:100A30005A01A5019401A3E056954795379527954E
:100A4000AA95D1F729833A834B835C83CA01B90104
:100A500041D6DC01CB011DE0B695A795979587950A
:100A60001A95D1F789839A83AB83BC83A989BA8904
:100A70009D01BB0F440B550B69817A818B819C8151
:100A800029D66B017C010CE0F594E794D794C794C8
:100A90000A95D1F7A501940182E0569547953795BF
:100AA00027958A95D1F729833A834B835C838F8579
:100AB00098899C01990F440B550B69817A818B8130
:100AC0009C8108D6DC01CB012DE0B595A7959795C3
:100AD00087952A95D1F78C0D9D1DAE1DBF1D2D85C7
:100AE0003E85A901330F660B770B840F951FA61F58
:100AF000B71F6C017D0134E0F594E794D794C79457
:100B00003A95D1F7C80CD91CEA1CFB1C41CEA701B1
:100B10009601F9D549015A01880C991CAA1CBB1CE5
:100B200088CF2091CA004B015C013CE2931A31E06E
:100B3000A30AB108C72CD12CDC2CCC24F12CE12C3D
:100B40005EE0CC0CDD1CEE1CFF1C5A95D1F78091A9
:100B5000C90090E064E0880F991F6A95E1F7322F91
:100B60003F70832BB0E0A0E074E1880F991FAA1FAB
:100B7000BB1F7A95D1F7C81AD90AEA0AFB0A8091F5
:100B8000CB0090E0E4E0880F991FEA95E1F7229509
:100B90002F70822B9C0150E040E029833A834B83E5
:100BA0005C83A501940169817A818B819C8192D5B6
:100BB000C61AD70AE80AF90A30E4D30EE11CF11C80
:100BC000D701C601FFE0B595A79597958795FA954A
:100BD000D1F789839A83AB83BC838091C800282F87
:100BE000880F330B440B550B2D833E834F8358875F
:100BF000A50194016D817E818F8198856BD5DC0183
:100C0000CB011BE0B595A795979587951A95D1F7D8
:100C10009C01AD0130584F4F5F4F2D833E834F8372
:100C200058878091CC00282F880F330B440B550B2D
:100C300029873A874B875C87A501940169857A8566
:100C40008B859C8547D569877A878B879C879B0195
:100C5000AC010AE055954795379527950A95D1F748
:100C60006D817E818F81988535D5DC01CB012AE0AD
:100C7000B595A795979587952A95D1F79C01AD01D4
:100C8000405E5F4F2D833E834F8358872091C6007F
:100C90003091C700032E000C440B550B6D817E81F3
:100CA0008F81988517D56D837E838F8398879B016D
:100CB000AC01305E4F4F5F4F6EE0559547953795CD
:100CC00027956A95D1F769817A818B819C8102D5BC
:100CD0006B017C01DC01CB017FE0B595A795979571
:100CE00087957A95D1F789839A83AB83BC839C01DE
:100CF000AD01CD01B901EED44B015C01E7E0B59443
:100D0000A79497948794EA95D1F789829A82AB82C7
:100D1000BC822091C500022E000C330B440B550BF6
:100D2000C501B401D7D4DC01CB01F4E0B595A7959A
:100D300097958795FA95D1F7C81AD90AEA0AFB0A56
:100D4000F7FE03C0C12CD12C760121E0C216D104DC
:100D5000E10429E1F2062CF0C12CD12CE12C39E17F
:100D6000F32ED701C6012CE0B595A79597958795E9
:100D70002A95D1F789839A83AB83BC83BC01CD01CB
:100D8000FFD520E030E040E85AE369837A838B8323
:100D90009C8369817A818B819C8180D620E030E0C0
:100DA00048EC52E469837A838B839C8369817A81DE
:100DB0008B819C8173D669837A838B839C836981C1
:100DC0007A818B819C81ABD569837A838B839C8369
:100DD000A981BA816D01BB0FEE08FF08D9CCB29B87
:100DE000FECFA8940895089598E09A95F1F7089594
:100DF00008958F938FB78F9382B78E5C82BF8F9148
:100E00008FBF8F9118951F921FB61F9211248F9339
:100E10009F93EF93FF938091AC0080FF4FC0C39AE4
:100E20008091AC0081FF16C08091AC008D7F8093D3
:100E3000AC008BEF8EB98091AB00880F880F880FC4
:100E400087608FB9FF91EF919F918F911F901FBE87
:100E50001F9018959091AA008091A9009817C9F049
:100E60008091AC0082608093AC00E091A900EF5FBC
:100E7000EF71E093A900F0E0E757FF4F8081809386
:100E8000AB008BEF8EB98091AB008695869580681C
:100E9000D8CFC3988091AC008E7F8093AC0013BEF6
:100EA00088B3836088BB87B38C7F87BB1DB880E223
:100EB0008ABF8BB780628BBFA89AC4CFC39880913A
:100EC000AC008B7F8093AC00E0918800EF5FEF7106
:100ED000809187008E1304C08091AC008860DDCFC4
:100EE000E09388008FB1F0E0E959FF4F8083D7CFBE
:100EF0008F938FB78F93B09919C081E182BF82B76A
:100F0000885682BF81E08CBD83BF82E088BF89B7ED
:100F1000826089BF84E58DB987EF8EB98BB78F7DED
:100F20008BBF8091AC0084608093AC008F918FBFA9
:100F30008F911895CDB7DEB7A0970FB6F894DEBFA6
:100F40000FBECDBFF89480E090E006D4F82E34D9DF
:100F500010928700109288001092A9001092AA00A7
:100F6000BB9AC39888B3836088BB87B38C7F87BBE9
:100F70001DB880E28ABF8BB780628BBFA89A789435
:100F80001E0128E1220E311CA895909188008091C5
:100F900087009817C9F38FE097E20197F1F700C037
:100FA0000000CC24C394D12C9091880080918700BC
:100FB000981751F33E0191E1690E711CF301562C13
:100FC000E72C81818193E215F305D9F79091880090
:100FD000809187009817D1F3E0918700EF5FEF7160
:100FE000E0938700F0E0E959FF4F80814DD8888F6A
:100FF00099899F11D9CF9A892DEF290F223010F0AE
:10100000963091F60F89182FAFEFBFEFBA83A983FF
:101010004301B6E08B0E911CBE016F5F7F4FF30161
:1010200081913F011AD868147904B1F789819A81B6
:101030000817190709F0B8CF0B891C891027012759
:1010400010279E889D89F9828A89843009F476C0A8
:10105000863009F4F9C2833009F0A6CF8A830115DE
:10106000110559F4F1E09F129FCF82E08B831C821F
:101070001D8267E0CE01019611C30130110509F10F
:101080000230110509F434C00330110509F43CC0E5
:101090000430110509F088CF92E0991285CF84E0E1
:1010A0008B838AD82091D1003091D2004091D30017
:1010B0005091D400298F3A8F4B8F5C8FCA01B901B0
:1010C00037C022E0921270CF84E08B83EEE1F0E033
:1010D00084918C83EFE1F0E084918D83E0E2F0E095
:1010E00084918E83E1E2F0E0E491EF8369E0C2CF86
:1010F000F1E09F1259CF82E08B8380E090E02CD307
:10110000F82E1C828D83B5CF22E092124DCF84E061
:101110008B8352D88091D5009091D600A091D700B2
:10112000B091D800898F9A8FAB8FBC8FBC01CD0155
:101130000CD36C837D838E839F83D8CF8A830115E4
:10114000110509F06BC031E093122ECF82E08B8342
:101150001C8280E28D8367E0CE010196F1D7C80141
:1011600080549241039708F01FCF8E89823009F096
:101170001BCF84E08B8380916400811143C00FDA20
:101180008CEEB8D988E86BD98DEEA6D99DEA892E68
:1011900090E0992E80E035D9D4018D934D01E5EC96
:1011A000F0E0EA17FB07B1F781E02BD98093C60086
:1011B00088D98CEE9FD981EE52D98DEE8DD986ECEF
:1011C000882E80E0982E80E01CD9D4018D934D01AB
:1011D000EDECF0E0EA17FB07B1F781E012D980935C
:1011E000CE006FD941E062EF86E7A1D947E264EF14
:1011F00086E79DD940EA65EF86E799D962D981E013
:101200008093640080E00034F2E11F0729F081E060
:101210000134124109F082E0D0D98ACF98013251CD
:101220002230310508F07AC042E09412BDCE8B83A3
:101230000115124109F043C0B2D980E85BD983EEB1
:101240000ED981E849D980E0DCD8082F10E0102FB2
:10125000002781E0D6D8082B34D9C801B0E0A0E03F
:10126000898F9A8FAB8FBC8F2DEC35E540E050E035
:10127000BC01CD012FD2DC01CB015DE0B695A79575
:10128000979587955A95D1F79C01AD012250374B20
:1012900041095109298F3A8F4B8F5C8FCA01B901DF
:1012A00071D320E030E04AE754E4698F7A8F8B8F66
:1012B0009C8F698D7A8D8B8D9C8DC9D226C16FD9FB
:1012C00080E818D985EECBD881E806D980E099D896
:1012D000082F10E0102F002781E093D8082BF1D8B9
:1012E000C801B0E0A0E0898F9A8FAB8FBC8F29E056
:1012F0003DE340E050E0BC01CD01ECD1DC01CB018D
:101300003DE0B695A795979587953A95D1F79C01BD
:10131000AD012057374141095109BCCF98012051F7
:1013200032412330310508F038C132E093123CCE0F
:101330008B8380916600811173C0F8948FE59AEEDB
:101340000197F1F700C0000040E068E080E6EFD8C8
:1013500040E069E080E6EBD840E064E080E6E7D872
:1013600040E065E080E6E3D840E066E080E6DFD874
:1013700040E063E080E6DBD84FEF61E280E6D7D85B
:1013800041E068E180E6D3D8AFE1BEE41197F1F720
:1013900000C0000047E167E080E6C9D8EFE1FEE465
:1013A0003197F1F700C000004BE763E180E6BFD85A
:1013B0004BE664E180E6BBD841E065E180E6B7D862
:1013C00040E066E180E6B3D860EB81E0D0D840E051
:1013D00063E080E6ACD841E064E080E6A8D860E055
:1013E0008EE0C5D860E08EE1C2D860E78DE1BFD85D
:1013F00060E28FE1BCD860E081E1B9D860E780E1CC
:10140000B6D860E282E1B3D840E068E080E68FD8E9
:1014100040E069E080E68BD8789481E080936600B4
:101420000031F2E11F0709F075C0B9D846E068E164
:1014300080E67DD88FE295E70197F1F700C00000C4
:1014400082E260D88C018091600090916100081761
:10145000190720F4109361000093600080916000F0
:1014600090916100081B190B82E16ED8E82E81E192
:101470006BD820E030E040E85FE3E5FE04C020E008
:1014800030E048E651E42D8F3E8F4F8F58A3A601E0
:1014900002C0440F551F8A95E2F79A01550F440B7D
:1014A000550B298F3A8F4B8F5C8FCA01B9016AD2D5
:1014B00026EF38E24CE150E4698F7A8F8B8F9C8F56
:1014C000698D7A8D8B8D9C8DE9D29B01AC016D8DE0
:1014D0007E8D8F8D98A1BBD1762E872E982EE92EEA
:1014E000C801B0E0A0E0898F9A8FAB8FBC8FB801A4
:1014F000CD0146D29B01AC01798E8A8E9B8EEC8EFB
:10150000698D7A8D8B8D9C8DC9D29C838D837E83D2
:101510006F83ECCD0131124121F541D846E068E1FD
:1015200080E605D8AFE2B5E71197F1F700C00000FB
:1015300084E2E8D78C0180916200909163000817E3
:10154000190720F4109363000093620080916200F9
:1015500090916300081B190B8FE1F6D7E82E8EE1FE
:1015600087CF1DD846E068E180E6E1D7AFE2B5E776
:101570001197F1F700C000008CE2C4D79C0150E045
:1015800040E0298F3A8F4B8F5C8FCA01B901F8D1A7
:1015900020E030E048EC52E488CE003232E113071C
:1015A00009F0DDCD42E09412FFCC8B838091650081
:1015B000811113C0F89486E49DD781E150D781D77B
:1015C00078945FE780E295E0515080409040E1F7E9
:1015D00000C0000081E080936500F894E0D787E4C4
:1015E00089D780E00ED7B82EB694A82EA794AA2447
:1015F000A79481E006D7E82E082F06950A0D1B2D2B
:10160000111D5FD77894980150E040E0298F3A8F00
:101610004B8F5C8FCA01B801B3D120E030E0A90143
:10162000E0FE04C020E030E040E05FE3698F7A8FA5
:101630008B8F9C8F698D7A8D8B8D9C8DA4D02AE9A0
:1016400039E949E95FE331CE8A830115110541F596
:1016500091111DC031E093121AC068E0852D9E2DB6
:1016600023D54FE758E381E0415050408040E1F7F7
:1016700000C00000F894E2E4EF93EFE4EF93EFE4AE
:10168000EF93E4E5EF93E0E0FEE009948DCC86E88B
:101690008A8B83E08B8B65E0852D9E2D51D584CC84
:1016A0000130110509F080CC91110EC08FEF890D2A
:1016B0008E3F50F4692D80E090E056D068E0852D93
:1016C0009E2DF2D4F92C70CC86E88A8383E08B833C
:1016D00065E0D0CCEE27FF27AA27BB2708C0A20FC2
:1016E000B31FE41FF51F220F331F441F551F96958C
:1016F00087957795679598F37040A9F7009799F7C4
:10170000BD01CF010895A1E21A2EAA1BBB1BFD014A
:101710000DC0AA1FBB1FEE1FFF1FA217B307E407D0
:10172000F50720F0A21BB30BE40BF50B661F771F28
:10173000881F991F1A9469F7609570958095909508
:101740009B01AC01BD01CF01089569279627692748
:101750007827872778270895E199FECF9FBB8EBB16
:10176000E09A99278DB30895262FE199FECF1CBAF0
:101770009FBB8EBB2DBB0FB6F894E29AE19A0FBEC9
:10178000019608955058BB27AA270ED04DC13ED1CF
:1017900030F043D120F031F49F3F11F41EF433C1F7
:1017A0000EF4E095E7FB29C1E92F4FD180F3BA177A
:1017B000620773078407950718F071F49EF567C1F7
:1017C0000EF4E0950B2EBA2FA02D0B01B90190015C
:1017D0000C01CA01A0011124FF27591B99F0593FA0
:1017E00050F4503E68F11A16F040A22F232F342FE8
:1017F0004427585FF3CF469537952795A795F04036
:101800005395C9F77EF41F16BA0B620B730B840B4A
:10181000BAF09150A1F0FF0FBB1F661F771F881F02
:10182000C2F70EC0BA0F621F731F841F48F487955A
:1018300077956795B795F7959E3F08F0B3CF939549
:10184000880F08F09927EE0F9795879508950CD08B
:10185000EBC0E3D040F0DAD030F021F45F3F19F074
:10186000CCC0511115C1CFC0F0D098F39923C9F362
:101870005523B1F3951B550BBB27AA276217730796
:10188000840738F09F5F5F4F220F331F441FAA1F4A
:10189000A9F333D00E2E3AF0E0E830D0915050400A
:1018A000E695001CCAF729D0FE2F27D0660F771FB8
:1018B000881FBB1F261737074807AB07B0E809F09A
:1018C000BB0B802DBF01FF2793585F4F2AF09E3F2F
:1018D000510568F092C0DCC05F3FECF3983EDCF34A
:1018E000869577956795B795F7959F5FC9F7880FA8
:1018F000911D9695879597F90895E1E0660F771FFA
:10190000881FBB1F621773078407BA0720F0621B8A
:10191000730B840BBA0BEE1F88F7E095089504D083
:101920006894B111B5C0089598D088F09F5790F091
:10193000B92F9927B751A0F0D1F0660F771F881FF4
:10194000991F1AF0BA95C9F712C0B13081F09FD033
:10195000B1E008959CC0672F782F8827B85F39F0D1
:10196000B93FCCF3869577956795B395D9F73EF453
:1019700090958095709561957F4F8F4F9F4F0895FB
:10198000E89409C097FB3EF4909580957095619519
:101990007F4F8F4F9F4F9923A9F0F92F96E9BB27CF
:1019A0009395F695879577956795B795F111F8CF4B
:1019B000FAF4BB0F11F460FF1BC06F5F7F4F8F4FB6
:1019C0009F4F16C0882311F096E911C0772321F0AC
:1019D0009EE8872F762F05C0662371F096E8862F44
:1019E00070E060E02AF09A95660F771F881FDAF79B
:1019F000880F9695879597F9089597F99F6780E8DE
:101A000070E060E008959FEF80EC089500240A9450
:101A10001616170618060906089500240A941216C9
:101A20001306140605060895092E0394000C11F4FC
:101A3000882352F0BB0F40F4BF2B11F460FF04C0A9
:101A40006F5F7F4F8F4F9F4F089557FD9058440F02
:101A5000551F59F05F3F71F04795880F97FB991F0D
:101A600061F09F3F79F087950895121613061406CA
:101A7000551FF2CF4695F1DF08C016161706180657
:101A8000991FF1CF86957105610508940895E89432
:101A9000BB2766277727CB0197F908950AD0C4CFD3
:101AA000B5DF28F0BADF18F0952309F0A6CFABCF49
:101AB000EFCFCBDFA8F39923D9F35523C9F3950FC3
:101AC00050E0551FAA27EE27FF27BB2700240894C4
:101AD000679520F4E20FF31FB41F0A1E220F331F75
:101AE000441FAA1F6695A9F7779530F4F30FB41F2A
:101AF0000A1E121E08F46395330F441FAA1F221FEB
:101B0000769599F7879520F4B40F0A1E121E631F6D
:101B1000440FAA1F221F331F8695A9F7862F712D08
:101B2000602D11249F5750408AF0E1F088234AF03D
:101B3000EE0FFF1FBB1F661F771F881F915050407D
:101B4000A9F79E3F510570F058CFA2CF5F3FECF34D
:101B5000983EDCF3869577956795B795F795E79569
:101B60009F5FC1F7FE2B880F911D9695879597F97A
:061B70000895F894FFCF78
:041B76000001000169
:00000001FF
